:020000040800F2
:100000001007002089010008D70F0008910E000892
:10001000D50F00088F020008E5110008000000005D
:10002000000000000000000000000000DB0F0008DE
:100030009102000800000000D90F0008DD0F000841
:10004000A3010008A3010008A3010008A301000800
:10005000A3010008A3010008A3010008A3010008F0
:10006000A3010008A3010008A3010008A3010008E0
:10007000A3010008A3010008A3010008A3010008D0
:10008000A3010008A3010008A3010008A3010008C0
:10009000A3010008A3010008A3010008A3010008B0
:1000A000A3010008A3010008A3010008A3010008A0
:1000B000A3010008A3010008A3010008A301000890
:1000C000A3010008A3010008A3010008A301000880
:1000D000A3010008A3010008A3010008A301000870
:1000E000A3010008A3010008A301000800F002F822
:1000F00000F03AF80AA090E8000C82448344AAF188
:100100000107DA4501D100F02FF8AFF2090EBAE885
:100110000F0013F0010F18BFFB1A43F0010318473B
:100120001411000034110000103A24BF78C878C1BF
:10013000FAD8520724BF30C830C144BF04680C60ED
:10014000704700000023002400250026103A28BF35
:1001500078C1FBD8520728BF30C148BF0B60704739
:100160001FB51FBD10B510BD00F058F81146FFF7C0
:10017000F7FF01F048F800F076F803B4FFF7F2FF5C
:1001800003BC00F07DF8000009488047094800479B
:10019000FEE7FEE7FEE7FEE7FEE7FEE7FEE7FEE737
:1001A000FEE7FEE704480549054A064B7047000094
:1001B00031100008ED000008100100201007002099
:1001C00010030020100300204FF0000200B513467A
:1001D00094469646203922BFA0E80C50A0E80C5067
:1001E000B1F12001BFF4F7AF090728BFA0E80C5018
:1001F00048BF0CC05DF804EB890028BF40F8042B11
:1002000008BF704748BF20F8022B11F0804F18BF7D
:1002100000F8012B7047704770477047754600F033
:100220002BF8AE4605006946534620F00700854688
:1002300018B020B5FFF7B6FFBDE820404FF000062C
:100240004FF000074FF000084FF0000B21F00701BE
:10025000AC46ACE8C009ACE8C009ACE8C009ACE801
:10026000C0098D46704710B50446AFF300802046A4
:10027000BDE81040FFF781BF00487047AC00002088
:1002800001491820ABBEFEE7260002007047FEE7DA
:10029000704772B6FEE700002DE9F84FDFF8B8911D
:1002A000002409F1040A0AF1040B23460F270BF17D
:1002B000040EC9E00125A5402A40AA427DD1674E1F
:1002C000D1F804C0ACEB0608B44532D014DCBCF164
:1002D000030F3AD009DCBCF1000F2AD0BCF1010FAA
:1002E0001CD0BCF1020F31D11DE0BCF1110F17D0B1
:1002F000BCF1120F2AD119E0B8F5881F19D006DC1D
:10030000B8F5803F15D0B8F5801F1FD111E0B8F5C2
:10031000001F0ED0B8F5041F18D10AE0CB6815E015
:10032000CB681B1D12E0CB6808330FE0CB680C33A1
:100330000CE08B682BB1012B4FF0080303D0456113
:1003400004E0042302E0056100E00023FF2A01D855
:10035000064601E000F104064FEA840501D9A5F143
:100360002005D6F8008007FA05FC28EA0C0803FAF5
:1003700005F548EA0508C6F800804D68ED0062D52D
:10038000374DAE6946F00106AE61AD6924F0030653
:1003900005F001050095334D06EB050CDCF808501F
:1003A000A607360F07FA06F825EA0805DFF8B88031
:1003B000404503D14FF0000817E044E0DFF8AC807F
:1003C000404502D14FF001080FE0DFF8A48040451E
:1003D00002D14FF0020808E0DFF89880404502D1D2
:1003E0004FF0030801E04FF0040808FA06F848EA65
:1003F0000508CCF808804D68D9F80060ED034D463B
:1004000001D5164300E096432E604D68DAF800608F
:10041000AD03554601D5164300E096432E604D6866
:10042000DBF80060ED025D4601D5164300E096431F
:100430002E604D68DEF80060AD02754601D51643AA
:1004400000E096432E60641C0D682A46E5407FF468
:1004500031AFBDE8F88F000000040140000011102A
:10046000001002400000014000080140000C014063
:1004700000100140001401400AB1016170470904F5
:10048000FBE7000001488068704700000000002082
:1004900070B5040025D094F83D00002520B984F8FB
:1004A0003C50204600F0B8F8242084F83D00206835
:1004B000016821F0010101602068016841F40041F8
:1004C00001602068016821F40041016000F0FCF93E
:1004D0004D4A6168914201D84C4900E04C4988423C
:1004E00001D2012070BD4B492368B0FBF1F15E6879
:1004F00026F03F060E435E606368934206D94FF4D0
:10050000967359434FF47A73B1FBF3F12368491C96
:100510001E6A26F03F06314319626168914210D885
:100520004900401EB0FBF1F2521CC2F30B02042A38
:1005300001D2042022E0B0FBF1F0401CC0F30B001C
:100540001CE0A268F2B301EBC10303EB0116431EEA
:10055000B3FBF6F35B1C43F480431B0549D092B315
:1005600001EBC10202EB0111401EB0FBF1F0401C97
:10057000C0F30B0040F4804040F400402168CA6999
:100580004CF6FF739A431043C861D4E90710014346
:100590002068026822F0C00211430160D4E903011F
:1005A00001432068826848F2FF339A431143816017
:1005B000D4E9050108432168CA6822F0FF0210430C
:1005C000C86001E00EE016E02068016841F001011A
:1005D00001602564202084F83D00256384F83E50A6
:1005E000002070BD01EB4106431EB3FBF6F35B1C1C
:1005F000B3E70120C2E701EB4101401EB0FBF1F07F
:10060000401CC0F30B00B7E7A086010080841E00E9
:1006100000093D0040420F0010B586B00021009156
:1006200001910291039100681349884222D1134C31
:10063000A06940F00800A061A069694600F00800C8
:1006400004904FF44070009012200190032003901A
:100650000B48FFF721FE0B48416841F0E06141F093
:1006600002014160E06940F40010E061E06900F4DB
:100670000010049006B010BD00540040001002406D
:10068000000C0140000001400248816802781144DA
:100690008160704700000020074810B5016841F0F4
:1006A00010010160032000F067F80F2000F006F849
:1006B00000F024F8002010BD0020024070B50D4D60
:1006C00004464FF47A712878B1FBF0F00A490968C2
:1006D000B1FBF0F000F0CEFA48B9102C07D200229E
:1006E0002146501E00F028F800206C6070BD0120EB
:1006F00070BD0000000000200C0000200C4808B570
:10070000816941F001018161816901F0010100917C
:10071000C16941F08051C161C06900F08050009012
:100720000448416821F0E06141F00071416008BD7A
:100730000010024000000140F0B40E4B1B680C4654
:10074000C3F30223C3F10705042D00D90425191DA5
:10075000072901D2002300E0DB1E012606FA05F17D
:10076000491E214099409E40761E16403143F0BC00
:1007700000F039BD0CED00E0064900F00702086802
:100780004FF6FF03184040EA0220034A1043086076
:10079000704700000CED00E00000FA052DE9F0477D
:1007A0000F46050061D0434E306800F00700B842A4
:1007B00009D2306820F0070038433060306800F01C
:1007C0000700B84251D128683B4C810712D5400739
:1007D00003D5606840F4E06060602878000703D5C6
:1007E000606840F4605060606068A96820F0F000C4
:1007F000084360602878C00728D06868012810D0B6
:100800002168022810D0890700292EDA616821F0BA
:10081000030101436160FFF735FE804641F28839EC
:100820000DE021688903EFE78901EDE7FFF72AFE74
:10083000A0EB0801494502D90320BDE8F0876068B4
:10084000696800F00C00B0EB810FEFD1306800F068
:100850000700B8420BD9306820F0070038433060F9
:10086000306800F00700B84201D00120E5E72878A1
:10087000400705D56068E96820F4E06008436060DF
:100880002878000706D56068296920F4605040EA9E
:10089000C100606000F028F86168084AC1F30311E4
:1008A000515CC8400649086006480068FFF706FF2B
:1008B0000020C2E700200240001002401C12000885
:1008C0000C00002004000020044805490068496825
:1008D000044AC1F30221515CC84070470C0000205B
:1008E000001002402C12000812A185B00FC98DE83B
:1008F0000F0014A0144A006804905168134801F0D6
:100900000C03042B10D0082B0ED1C1F38343C90371
:100910001DF803000AD5516804AAC1F34041515C97
:100920000A4A5043B0FBF1F005B07047084948430C
:10093000FAE7000002030405060708090A0B0C0D7C
:100940000E0F1010010200000010024000127A0089
:1009500000093D002DE9F84F040070D02078C04D0B
:10096000C00749D06868C0F38100012807D06868D3
:10097000C0F38100022809D16868C00306D5286841
:10098000800339D560680028E7D035E06068B0F5AD
:10099000803F0BD010B1B0F5A02F11D0286820F403
:1009A00080302860286820F4802002E0286840F425
:1009B00080302860606890B1FFF764FD06460AE069
:1009C000286840F480202860F0E700BFFFF75AFD58
:1009D000801B642873D828688003F7D50CE0FFF7E4
:1009E00051FD064605E000BFFFF74CFD801B642863
:1009F000F0D828688003F7D420789A4E80074FF00B
:100A000001094FF0000839D5686810F00C0F07D0C5
:100A10006868C0F38100022809D16868C00306D461
:100A20002868800714D52069012808D110E02069C2
:100A3000B0B1C6F80090FFF725FD074605E00AE1D2
:100A4000FFF720FDC01B0228C4D828688007F7D50F
:100A50002868616920F0F80040EAC10028600DE0D4
:100A6000C6F80080FFF70EFD074604E0FFF70AFD19
:100A7000C01B022823D828688007F7D420780007F5
:100A80002CD57948A169D9B1C0F80090FFF7FAFCDC
:100A9000074604E0FFF7F6FCC01B02280FD8686A7F
:100AA0008007F7D571484FF4FA510068B0FBF1F0B8
:100AB000009000BF0098411E0091FAD20EE080E045
:100AC000C0F80080FFF7DEFC074604E0FFF7DAFC21
:100AD000C01B022875D8686A8007F7D420784007C1
:100AE00060D5E8690027C00008D4E86940F080506C
:100AF000E861E869012700F0805000905C480168D7
:100B0000C90513D40168834641F480710160FFF781
:100B1000B9FC824606E000BFFFF7B4FCA0EB0A0078
:100B200064284ED8DBF80000C005F5D5E068012840
:100B30000AD008B1052813D0286A20F001002862E5
:100B4000286A20F0040002E0286A40F001002862D0
:100B5000E06841F2883B98B1FFF794FC82460BE0D5
:100B6000286A40F004002862EEE700BFFFF78AFC25
:100B7000A0EB0A0159455AD8286A8007F6D50CE03F
:100B8000FFF780FC824605E0FFF77CFCA0EB0A0142
:100B900059454CD8286A8007F6D41FB1E86920F07F
:100BA0008050E861E06988B36968C1F38101022976
:100BB00044D00228C6F8608004D0FFF763FC0446E6
:100BC00038E034E0FFF75EFC074604E0FFF75AFC2C
:100BD000C01B02282BD828688001F7D4206AB0F502
:100BE000803F05D16868A16820F400300843686040
:100BF000D4E908010843696821F474110843686066
:100C0000C6F86090FFF73EFC044606E025E000BF12
:100C1000FFF738FC001B022809D828688001F7D5A7
:100C20001BE000BFFFF72EFC001B022802D90320A7
:100C3000BDE8F88F28688001F4D40EE00128F7D0D1
:100C40006868226A00F48031914204D1616A00F43C
:100C50007010884201D00120EAE70020E8E7000098
:100C60000010024000004242800442420C0000207A
:100C70000070004010B5401EB0F1807F01D301200C
:100C800010BD4FF0E02460610F21601700F0ABFA57
:100C90000020A06107202061002010BD70B590F8F1
:100CA0003C20012A26D0012480F83C40022280F812
:100CB0003D2003685A689D6822F070060A68324336
:100CC0005A600D4B02689A4208D0B2F1804F05D0AD
:100CD0000A4B9A4202D00A4B9A4204D1496825F045
:100CE00080031943916080F83D40002180F83C105A
:100CF000084670BD022070BD002C01400004004079
:100D00000008004000B585B00021009101910291DA
:100D100003910068B0F1804F11D10A48816941F018
:100D2000040181618069694600F0040004900C2090
:100D300000900220019003900348FFF7ADFA05B040
:100D400000BD0000001002400008014070B50446DC
:100D500090F83C000D4601280AD0012084F83C00A0
:100D600042B1042A18D0082A2AD00C2A4DD139E0E1
:100D7000022070BD206800F093F92068816941F07D
:100D8000080181612068816921F004018161206886
:100D900081692A69114311E0206800F0A9F92068EF
:100DA000816941F4006181612068816921F4806179
:100DB0008161206881692A6941EA0221816124E018
:100DC000206800F0C1F92068C16941F00801C161E3
:100DD0002068C16921F00401C1612068C1692A69E4
:100DE000114311E0206800F0DBF92068C16941F48B
:100DF0000061C1612068C16921F48061C16120681E
:100E0000C1692A6941EA0221C161002084F83C00DD
:100E100070BD10B5040003D094F83D0010B107E098
:100E2000012010BD002084F83C00204600F01EF890
:100E3000022084F83D00211D206800F0FBF801200D
:100E400084F8460084F83E0084F83F0084F84000AF
:100E500084F8410084F8420084F8430084F8440098
:100E600084F8450084F83D00002010BD08B50068F6
:100E7000B0F1804F08D10548C16941F00101C1615D
:100E8000C06900F00100009008BD000000100240A1
:100E9000FEE70000F0B585B000241C4800940194E2
:100EA00002940394816941F020018161816901F01C
:100EB00020010491816941F004018161816901F09F
:100EC00004010491816941F0080181618069104F3A
:100ED00000F008004FF47046049000223146384676
:100EE000FFF7CAFA0325CDE9005469460948029480
:100EF000FFF7D2F901AA0120009682E83100694685
:100F00003846FFF7C9F905B0F0BD000000100240F7
:100F1000000C0140000801400D4810B50B4901606C
:100F20000C49416000214FF480428160C0E9031206
:100F300041618161C1610162FFF7AAFA002803D013
:100F4000BDE81040FFF7A5B910BD000000540040F7
:100F500010000020A086010010B58AB0002407947C
:100F60001C2168460894FFF72FF919484FF080417B
:100F7000C0E900144FF6FF71C0E9024104618461C9
:100F8000FFF747FF08B1FFF784F9079407A9104856
:100F90000894FFF783FE08B1FFF77BF96020CDE9E5
:100FA000000402940822694609480494FFF7CEFE23
:100FB00008B1FFF76EF90C2269460548FFF7C6FE37
:100FC00008B1FFF766F90248FFF79CFE0AB010BDB2
:100FD00064000020FEE7FEE770477047FFF754BB50
:100FE00010B590B028216846FFF7EEF814210AA842
:100FF000FFF7EAF80220009001200490102000245E
:10100000059007946846FFF7A5FC08B172B6FEE7A5
:101010000F20CDE90A040C940D9400210AA80E9427
:10102000FFF7BCFB002801D072B6FEE710B010BD80
:1010300070470000F0B50268164B174C174D4FF083
:101040008047984205D0B84203D0A04201D0A842C0
:1010500003D122F070064A683243984205D0B84264
:1010600003D0A04201D0A84203D122F44074CA6840
:1010700022434C6922F08002224302608A68C262E5
:101080000A688262984201D10969016301214161C4
:10109000F0BD0000002C01400004004000080040AA
:1010A00030B5026A22F001020262026A4368846972
:1010B00024F073050C682C4322F002058A682A4349
:1010C0000A4DA8420BD122F00805CA6823F44073E8
:1010D0002A434D6922F004021D438B692B43436070
:1010E000846149684163026230BD0000002C014008
:1010F00030B5026A22F010020262026A4368846913
:101100000D6824F4E64444EA05248D6822F02002A8
:1011100042EA05120B4DA8420ED1CD6822F08002A2
:1011200042EA05124D6923F4406343EA85038D6961
:1011300022F0400243EA8503436084614968816389
:10114000026230BD002C014030B5026A22F4807288
:101150000262036A4268C46923F4007324F07305D1
:101160000C682C438D6843EA05230C4DA8420ED130
:10117000CD6823F4006343EA05234D6922F440520D
:1011800042EA05128D6923F4806342EA0512426047
:10119000C4614968C163036230BD0000002C014096
:1011A00030B5026A22F480520262046A4268C3695E
:1011B0000D6823F4E64343EA05238D6824F40054C4
:1011C00044EA0534064DA84204D14D6922F4804218
:1011D00042EA85124260C36149680164046230BD1D
:1011E000002C0140FEE70907090E002804DB00F18E
:1011F000E02080F80014704700F00F0000F1E020BC
:1012000080F8141D7047FFF747FAFFF7E9FEFFF774
:1012100041FEFFF781FEFFF79FFEFEE700000000A2
:101220000000000001020304060708090000000096
:101230000102030454120008000000201000000006
:1012400028010008641200081000002000070000B8
:101250004401000801000000100000000000000030
:041260000024F40072
:04000005080000ED02
:00000001FF
