:020000040800F2
:10000000A008002099010008CF260008F71E00086C
:10001000CD2600083D050008412D00080000000025
:10002000000000000000000000000000D3260008CF
:100030008905000800000000D1260008F526000808
:10004000B3010008B3010008B3010008B3010008C0
:10005000B3010008B3010008B3010008B3010008B0
:10006000B3010008B3010008B3010008B3010008A0
:10007000B3010008B3010008B3010008B301000890
:10008000B3010008B3010008B3010008B301000880
:10009000B3010008B3010008B3010008B301000870
:1000A000B3010008B3010008B3010008B301000860
:1000B000B301000879270008B3010008B301000864
:1000C000B3010008B3010008B3010008B301000840
:1000D000B3010008B3010008B3010008CD2C0008EB
:1000E000B3010008B3010008B301000800F002F8F2
:1000F00000F043F80AA090E8000C82448344AAF17F
:100100000107DA4501D100F038F8AFF2090EBAE87C
:100110000F0013F0010F18BFFB1A43F0010318473B
:10012000103F0000303F0000103A24BF78C878C16B
:10013000FAD8520724BF30C830C144BF04680C60ED
:10014000704700000023002400250026103A28BF35
:1001500078C1FBD8520728BF30C148BF0B60704739
:100160001FB500F02DF904000020002103F060F815
:10017000401C60601FBD10B510BD00F0FCF81146BA
:10018000FFF7EEFF03F034F800F02CF903B4FFF7AB
:10019000F2FF03BC00F070F90948804709480047A6
:1001A000FEE7FEE7FEE7FEE7FEE7FEE7FEE7FEE727
:1001B000FEE7FEE704480549054A064B7047000084
:1001C00077270008ED000008A0020020A00800200A
:1001D000A0040020A004002070B5064600F034F80A
:1001E0000468054630460A22002100F031F82C60F0
:1001F00070BD4FF0000200B5134694469646203974
:1002000022BFA0E80C50A0E80C50B1F12001BFF4CF
:10021000F7AF090728BFA0E80C5048BF0CC05DF835
:1002200004EB890028BF40F8042B08BF704748BF83
:1002300020F8022B11F0804F18BF00F8012B7047F7
:100240007047704770470000004870474002002028
:100250002DE9F04791460F4680460446002614F8E3
:10026000015B2DB100F030F80068405DC007F6D1A9
:100270002B2D02D02D2D18D0641E4A46394620461B
:1002800000F02AF827B13968A14201D1C7F80080EF
:100290004FF0020471050BD54042002803DDFFF743
:1002A000D3FF0460A007BDE8F08746F48066E4E76A
:1002B0000028F8DAFFF7C8FF04606FF00040F2E7AB
:1002C000004870474002002010B500F079F8001D8A
:1002D00010BD00BF5D2F00002DE9F05F824615467E
:1002E0008B4600270AF10104B9460078302801D076
:1002F0009DB113E014F8010B0127782803D058288A
:1003000001D045B10AE00DB1102D07D1002714F836
:10031000010B102502E0082500E00A250026B04662
:100320000EE005FB080005FB06F101271FFA80F827
:1003300001EB1046B6F5803F00D3B94614F8010B27
:10034000294600F041F80028EBDABBF1000F05D098
:100350000FB1641E00E05446CBF80040B9F1000F25
:1003600006D0FFF771FF02210160C81EBDE8F09FB3
:1003700048EA0640FAE77546FFF7A2FFAE460500D9
:100380006946534620F00700854618B020B5FFF7B0
:1003900011FFBDE820404FF000064FF000074FF07E
:1003A00000084FF0000B21F00701AC46ACE8C00993
:1003B000ACE8C009ACE8C009ACE8C0098D4670479C
:1003C00000487047600200203A2800D2303820F000
:1003D0002002412A01D3A2F13700884201D34FF015
:1003E000FF30704710B50446AFF300802046BDE8EB
:1003F0001040FFF7CBBE00004FF0013C50F8042B3B
:1004000051F8043B9A4221D1A2EB0C03934313EA27
:10041000CC1317D150F8042B51F8043B9A4215D154
:10042000A2EB0C03934313EACC130BD150F8042B2B
:1004300051F8043B9A4209D1A2EB0C03934313EA0F
:10044000CC13DBD04FF00000704700BFD01A01BAC8
:10045000B1FA81F101F0180122FA01F0CB40C1F1AB
:100460002001DBB2C0B2C01A2CFA01F3D11A9143B9
:1004700011EAC311E6D1704701491820ABBEFEE76F
:1004800026000200704700002DE9F041264CB4F927
:10049000000003F01DF96FF00D052A4603F025FD5D
:1004A00002F0DCFEA061B4F9020003F011F92A4663
:1004B00003F01BFD02F0D2FE0646E061B4F9040031
:1004C00003F006F92A4603F010FD02F0C7FE206291
:1004D00003F00AFB07460D46304603F005FB3A469B
:1004E0002B4602F0C5FD114A114B02F099FF002284
:1004F000104B03F005F902F0B1FE05466062B4F955
:10050000060003F0E5F84FF066320B4B02F088FF6F
:1005100002F0A4FEA06201462846E26800F010F84E
:10052000E062BDE8F0810000000000201F85EB5173
:10053000B81E09400080664066663040FEE7000055
:100540002DE9F04117460E4C88460E4A0B4E0146E7
:100550001046666103F056FB05463946404603F0F7
:1005600051FB216903F0ECFA314603F04BFB2946BD
:1005700003F0E6FA2061BDE8F081000048E17A3F2F
:100580000000002000D7A33C704772B6FEE70000D1
:10059000064A10B5911E881E01F096FE034ABDE87A
:1005A0001040921D911E881E01F0A6BE040000207E
:1005B00010B590F821100022022905D00421816392
:1005C00080F82020012010BD01680B6823F00E0385
:1005D0000B6001680B6823F001030B6090F840305A
:1005E000C46B012101FA03F3636080F8211080F8E5
:1005F0002020104610BD000010B590F821100024F6
:10060000022903D00421816301243DE001680A68C6
:1006100022F00E020A6001680A6822F001020A60F4
:100620001A4A0168914201D1012121E0174A14328E
:10063000914201D110211BE0144A2832914201D18C
:10064000891515E0114A3C32914201D189140FE01D
:100650000E4A5032914202D14FF4803108E00B4AE9
:100660006432914202D14FF4801101E04FF0807169
:10067000064A083A5160012180F82110002180F8D3
:100680002010416B01B18847204610BD0800024090
:1006900070B5044600F004F90546601C02D0044819
:1006A0000078044400F0FCF8401BA042FAD370BD6F
:1006B000400000202DE9F84FDFF8B891002409F13F
:1006C000040A0AF1040B23460F270BF1040EC9E0BC
:1006D0000125A5402A40AA427DD1674ED1F804C029
:1006E000ACEB0608B44532D014DCBCF1030F3AD0B1
:1006F00009DCBCF1000F2AD0BCF1010F1CD0BCF109
:10070000020F31D11DE0BCF1110F17D0BCF1120F57
:100710002AD119E0B8F5881F19D006DCB8F5803F5A
:1007200015D0B8F5801F1FD111E0B8F5001F0ED00D
:10073000B8F5041F18D10AE0CB6815E0CB681B1D83
:1007400012E0CB6808330FE0CB680C330CE08B6809
:100750002BB1012B4FF0080303D0456104E00423C3
:1007600002E0056100E00023FF2A01D8064601E00F
:1007700000F104064FEA840501D9A5F12005D6F859
:10078000008007FA05FC28EA0C0803FA05F548EA98
:100790000508C6F800804D68ED0062D5374DAE699A
:1007A00046F00106AE61AD6924F0030605F00105CF
:1007B0000095334D06EB050CDCF80850A607360F04
:1007C00007FA06F825EA0805DFF8B880404503D1A6
:1007D0004FF0000817E044E0DFF8AC80404502D15C
:1007E0004FF001080FE0DFF8A480404502D14FF040
:1007F000020808E0DFF89880404502D14FF0030876
:1008000001E04FF0040808FA06F848EA0508CCF8B9
:1008100008804D68D9F80060ED034D4601D51643B8
:1008200000E096432E604D68DAF80060AD0355464F
:1008300001D5164300E096432E604D68DBF800605A
:10084000ED025D4601D5164300E096432E604D68EB
:10085000DEF80060AD02754601D5164300E0964310
:100860002E60641C0D682A46E5407FF431AFBDE878
:10087000F88F000000040140000011100010024039
:100880000000014000080140000C01400010014040
:10089000001401400AB1016170470904FBE7000040
:1008A00001488068704700004000002070B50400D7
:1008B00025D094F83D00002520B984F83C5020460E
:1008C00000F078FA242084F83D002068016821F0C7
:1008D000010101602068016841F400410160206865
:1008E000016821F40041016000F0CAFB4D4A6168D3
:1008F000914201D84C4900E04C49884201D2012084
:1009000070BD4B492368B0FBF1F15E6826F03F06ED
:100910000E435E606368934206D94FF49673594361
:100920004FF47A73B1FBF3F12368491C1E6A26F079
:100930003F06314319626168914210D84900401E58
:10094000B0FBF1F2521CC2F30B02042A01D20420C4
:1009500022E0B0FBF1F0401CC0F30B001CE0A268E9
:10096000F2B301EBC10303EB0116431EB3FBF6F335
:100970005B1C43F480431B0549D092B301EBC102D9
:1009800002EB0111401EB0FBF1F0401CC0F30B0064
:1009900040F4804040F400402168CA694CF6FF737F
:1009A0009A431043C861D4E90710014320680268E4
:1009B00022F0C00211430160D4E903010143206821
:1009C000826848F2FF339A4311438160D4E90501FC
:1009D00008432168CA6822F0FF021043C86001E0A2
:1009E0000EE016E02068016841F001010160256415
:1009F000202084F83D00256384F83E50002070BD1F
:100A000001EB4106431EB3FBF6F35B1CB3E7012089
:100A1000C2E701EB4101401EB0FBF1F0401CC0F306
:100A20000B00B7E7A086010080841E0000093D008E
:100A300040420F002DE9FF4F83B00025DDE910791A
:100A40009A4693460446DDF848800095FFF728FF54
:100A5000064694F83D0020287CD1192301228549BF
:100A60002046009601F058FB0028F5D194F83C0090
:100A700001286FD0012084F83C0020680168C90774
:100A800003D1016841F0010101602068016821F48F
:100A900000610160222084F83D00402084F83E007F
:100AA00025646762A4F82A90608D20857248E06210
:100AB000CDE9008653465A462046049901F034FA9F
:100AC00000287DD1208DDFF8B491202768B101285E
:100AD00014D00228206801681ED041F480610160B2
:100AE0002068416980690090B6E0206841698169A9
:100AF0000091016841F400710160ADE02068016877
:100B000021F48061016072B62068416981690091B9
:100B1000016841F400710AE041F40061016072B6BD
:100B20002068416981690091016821F48061016058
:100B300062B691E0032868D801280CD00228434609
:100B40004FF000024946204600960FD001F0E4FA2B
:100B5000B0BB10E08BE032464146204601F05BFB23
:100B600070BB20680069616A08706CE001F0D4FA1B
:100B700030BB72B634E02068016821F48061016006
:100B800072B620680069616A0870606A401C606221
:100B9000208D401E2085608D401E6085384846F2BD
:100BA000A8110068B0FBF1F0C0EBC00000EB8000C2
:100BB0000090401E009008D020684069C04300E0CB
:100BC00029E040070CD50098F3E744F8305F6773DD
:100BD000A573206940F02000206162B625731AE0F9
:100BE0002068016841F40071016020680069616A51
:100BF0000870606A401C6062218D491E2185618DEC
:100C0000491E618562B621681BE032464146204696
:100C100001F001FB18B1012007B0BDE8F08F20689A
:100C20000069616A0870606A401C6062218D491E1B
:100C30002185618D491E618521684A69D243520729
:100C40000AD409690170606A401C6062208D401EF0
:100C50002085608D401E6085208D00287FF46AAF5E
:100C600084F83D7084F83E5084F83C50D4E702206C
:100C7000D2E70000020010000000FFFF04000100A6
:100C80004C0000202DE9FF4F83B09A46DDE9119713
:100C900093460446DDF84080FFF702FE054694F8CF
:100CA0003D0020287FD1192301224049204600958C
:100CB00001F032FA002876D194F83C00012872D075
:100CC000012084F83C0020680168C90703D101684D
:100CD00041F0010101602068016821F400610160B8
:100CE000212084F83D00402084F83E000026266440
:100CF000C4F82480A4F82A90608D20852C48E062F6
:100D0000CDE9007553465A462046049901F08AF908
:100D100070B930E02A463946204601F0AFFA58B1A2
:100D2000206C042804D12068016841F4007101603E
:100D3000012007B0BDE8F08F606A21680078086183
:100D4000606A401C6062218D491E89B22185628DD6
:100D5000521E628522685369DB435B070BD469B17D
:100D600000781061606A401C6062208D401E208502
:100D7000608D401E6085208D0028CBD12A463946E3
:100D8000204601F0A3F90028CAD154F83D0B0168B0
:100D900041F400710160202004F81E09E6776677AF
:100DA0000020C6E7FFE70220C3E7000002001000B2
:100DB0000000FFFF10B586B0002100910191029163
:100DC000039100681349884222D1134CA06940F076
:100DD0000800A061A069694600F0080004904FF483
:100DE0004070009012200190032003900B48FFF701
:100DF00061FC0B48416841F0E06141F00201416053
:100E0000E06940F40010E061E06900F40010049033
:100E100006B010BD0054004000100240000C01401C
:100E200000000140024881680278114481607047E7
:100E300040000020074810B5016841F01001016032
:100E4000032000F075F80F2000F006F800F024F8F9
:100E5000002010BD0020024070B50D4D04464FF437
:100E60007A712878B1FBF0F00A490968B1FBF0F01B
:100E700000F0ECFA48B9102C07D200222146501E8F
:100E800000F036F800206C6070BD012070BD0000DD
:100E9000400000204C0000200C4808B5816941F05A
:100EA00001018161816901F001010091C16941F095
:100EB0008051C161C06900F08050009004484168D1
:100EC00021F0E06141F00071416008BD0010024076
:100ED00000000140002809DB00F01F0201219140C1
:100EE0004009800000F1E020C0F8001170470000C8
:100EF000F0B40E4B1B680C46C3F30223C3F1070585
:100F0000042D00D90425191D072901D2002300E072
:100F1000DB1E012606FA05F1491E214099409E403C
:100F2000761E16403143F0BC01F01FBF0CED00E00F
:100F3000064900F0070208684FF6FF03184040EA30
:100F40000220034A10430860704700000CED00E0E7
:100F50000000FA052DE9F0470F46050061D0434E29
:100F6000306800F00700B84209D2306820F007006E
:100F700038433060306800F00700B84251D128682B
:100F80003B4C810712D5400703D5606840F4E06010
:100F900060602878000703D5606840F460506060A6
:100FA0006068A96820F0F000084360602878C007F6
:100FB00028D06868012810D02168022810D089073D
:100FC00000292EDA616821F0030101436160FFF717
:100FD00067FC804641F288390DE021688903EFE71C
:100FE0008901EDE7FFF75CFCA0EB0801494502D958
:100FF0000320BDE8F0876068696800F00C00B0EB82
:10100000810FEFD1306800F00700B8420BD930688B
:1010100020F0070038433060306800F00700B84225
:1010200001D00120E5E72878400705D56068E96828
:1010300020F4E060084360602878000706D5606807
:10104000296920F4605040EAC100606000F038F87F
:101050006168084AC1F30311515CC8400649086041
:1010600006480068FFF7F8FE0020C2E700200240B3
:1010700000100240763F00084C0000204400002091
:101080000448054900684968044AC1F30221515CDB
:10109000C84070474C00002000100240863F000806
:1010A0000448054900684968044AC1F3C221515CFB
:1010B000C84070474C00002000100240863F0008E6
:1010C00012A185B00FC98DE80F0014A0144A006862
:1010D00004905168134801F00C03042B10D0082B26
:1010E0000ED1C1F38343C9031DF803000AD551682B
:1010F00004AAC1F34041515C0A4A5043B0FBF1F0ED
:1011000005B0704708494843FAE7000002030405A8
:10111000060708090A0B0C0D0E0F10100102000043
:101120000010024000127A0000093D002DE9F84F3E
:10113000040070D02078C04DC00749D06868C0F363
:101140008100012807D06868C0F38100022809D116
:101150006868C00306D52868800339D56068002810
:10116000E7D035E06068B0F5803F0BD010B1B0F546
:10117000A02F11D0286820F480302860286820F43F
:10118000802002E0286840F480302860606890B1D8
:10119000FFF786FB06460AE0286840F480202860B6
:1011A000F0E700BFFFF77CFB801B642873D828683A
:1011B0008003F7D50CE0FFF773FB064605E000BFA0
:1011C000FFF76EFB801B6428F0D828688003F7D4F3
:1011D00020789A4E80074FF001094FF0000839D56A
:1011E000686810F00C0F07D06868C0F3810002280F
:1011F00009D16868C00306D42868800714D520691F
:10120000012808D110E02069B0B1C6F80090FFF7BE
:1012100047FB074605E00AE1FFF742FBC01B022837
:10122000C4D828688007F7D52868616920F0F800DD
:1012300040EAC10028600DE0C6F80080FFF730FBEF
:10124000074604E0FFF72CFBC01B022823D82868C0
:101250008007F7D4207800072CD57948A169D9B147
:10126000C0F80090FFF71CFB074604E0FFF718FBEF
:10127000C01B02280FD8686A8007F7D571484FF461
:10128000FA510068B0FBF1F0009000BF0098411ED9
:101290000091FAD20EE080E0C0F80080FFF700FB7A
:1012A000074604E0FFF7FCFAC01B022875D8686AFD
:1012B0008007F7D42078400760D5E8690027C00090
:1012C00008D4E86940F08050E861E869012700F03F
:1012D000805000905C480168C90513D401688346BA
:1012E00041F480710160FFF7DBFA824606E000BF3F
:1012F000FFF7D6FAA0EB0A0064284ED8DBF800000E
:10130000C005F5D5E06801280AD008B1052813D03A
:10131000286A20F001002862286A20F0040002E018
:10132000286A40F001002862E06841F2883B98B1E9
:10133000FFF7B6FA82460BE0286A40F00400286204
:10134000EEE700BFFFF7ACFAA0EB0A0159455AD807
:10135000286A8007F6D50CE0FFF7A2FA824605E07E
:10136000FFF79EFAA0EB0A0159454CD8286A80077E
:10137000F6D41FB1E86920F08050E861E06988B3D5
:101380006968C1F38101022944D00228C6F860804F
:1013900004D0FFF785FA044638E034E0FFF780FA1E
:1013A000074604E0FFF77CFAC01B02282BD8286808
:1013B0008001F7D4206AB0F5803F05D16868A16844
:1013C00020F4003008436860D4E9080108436968E4
:1013D00021F4741108436860C6F86090FFF760FA62
:1013E000044606E025E000BFFFF75AFA001B02287A
:1013F00009D828688001F7D51BE000BFFFF750FA35
:10140000001B022802D90320BDE8F88F286880015C
:10141000F4D40EE00128F7D06868226A00F4803125
:10142000914204D1616A00F47010884201D0012019
:10143000EAE70020E8E70000001002400000424216
:10144000800442424C0000200070004010B5401E55
:10145000B0F1807F01D3012010BD4FF0E024606126
:101460000F21601701F081FC0020A061072020619E
:10147000002010BD7047704770B590F83C20012ADD
:1014800026D0012480F83C40022280F83D200368E9
:101490005A689D6822F070060A6832435A600D4B04
:1014A00002689A4208D0B2F1804F05D00A4B9A42A6
:1014B00002D00A4B9A4204D1496825F080031943AF
:1014C000916080F83D40002180F83C10084670BDD6
:1014D000022070BD002C01400004004000080040C4
:1014E00010B5040003D094F83D0010B107E00120CE
:1014F00010BD002084F83C00204600F01FF80220B8
:1015000084F83D00211D206801F048F9012084F88D
:10151000460084F83E0084F83F0084F8400084F8D8
:10152000410084F8420084F8430084F8440084F8C1
:10153000450084F83D00002010BD000000B585B0D6
:1015400000210091019102910391006811498842A4
:101550001ED11148C16941F00201C161C16901F0A8
:1015600002010491816941F0040181618069694649
:1015700000F004000490402000900848FFF79AF81B
:10158000002211461D20FFF7B3FC1D20FFF7A2FC2F
:1015900005B000BD000400400010024000080140FA
:1015A00070B5044690F83C00012817D0012584F856
:1015B0003C50022084F83D002068826822F07702C7
:1015C00022F47F4282600868502830D00DDC202849
:1015D0004DD005DC98B310283BD148E0022070BD07
:1015E000302844D0402834D139E0602828D07028F1
:1015F00006D0B0F5805F2CD0B0F5005F29D10AE0AD
:10160000CB68D1E90121206801F00BF920688168DD
:1016100041F0770109E0CB68D1E90121206801F0B0
:1016200000F92068816841F48041816011E0CA6856
:101630004968206801F0EDF95021206807E016E0C4
:10164000CA684968206801F021FA6021206801F029
:10165000F2F884F83D50002084F83C0070BDCA6860
:101660004968206801F0D5F940212068EFE7226839
:1016700001461046EBE770472DE9F041054690F82A
:101680003C000C46012836D0012085F83C008AB386
:10169000042A42D02868082A51D0D4E90023E168FE
:1016A000066A26F480560662C669076A26F4407602
:1016B00046EA03234FF6FF7606EA013123F470432E
:1016C00019434FF4005627F4005306EA02321A4336
:1016D000C16102622868C16921F44061C161286862
:1016E000C169A26841EA0221C161002085F83C007D
:1016F000BDE8F08101E00220FAE7D4E90012E368D6
:10170000286801F097F92868816921F00C0181614E
:1017100028688169A26811430FE0D4E90012E368E8
:10172000286801F0C5F92868816921F44061816168
:1017300028688169A26841EA02218161D5E7D4E97C
:101740000027267B016A21F480710162C169036A66
:1017500021F00301394321F0F00731074FF40076FF
:1017600047EA116123F4007306EA02221A43C161B9
:1017700002622868C16921F00C01C1612868C16951
:10178000A2681143B0E710B5040003D094F83D00FF
:1017900010B107E0012010BD002084F83C00204675
:1017A00000F01EF8022084F83D00211D206800F0A2
:1017B000F5FF012084F8460084F83E0084F83F00DD
:1017C00084F8400084F8410084F8420084F8430023
:1017D00084F8440084F8450084F83D00002010BDE2
:1017E000704770B50446006801694FF00005C943B1
:1017F000890715D4C168C943890711D4E91E01615D
:1018000001202077206880698007204602D0FFF7FA
:1018100032FF04E000F0BCF8204600F05DF92577C7
:1018200020680169C943490717D4C168C9434907FA
:1018300013D46FF0040101610220207720688069D1
:1018400010F4407F204602D0FFF715FF04E000F0BF
:101850009FF8204600F040F9257720680169C943C8
:10186000090716D4C168C943090712D46FF00801EB
:101870000161042020772068C0698007204602D0DB
:10188000FFF7F9FE04E000F083F8204600F024F9A9
:10189000257720680169C943C90617D4C168C943BF
:1018A000C90613D46FF01001016108202077206869
:1018B000C06910F4407F204602D0FFF7DCFE04E050
:1018C00000F066F8204600F007F9257720680169E6
:1018D000C943C90708D1C168C943C90704D1891ED2
:1018E0000161204600F048F920680169C9430906F2
:1018F00009D4C168C943090605D46FF080010161AC
:101900002046FFF7B7FD20680169C943490609D49D
:10191000C168C943490605D46FF040010161204602
:1019200000F056F920680169C94389060BD4C168E3
:10193000C943890607D46FF0200101612046BDE844
:101940007040FFF798BD70BD00B585B000210091D3
:101950000191029103910068B0F1804F11D10A48C2
:10196000816941F0040181618069694600F00400E9
:1019700004900C2000900220019003900348FEF791
:1019800099FE05B000BD00000010024000080140B3
:10199000704770B5044690F83C000D4601280AD007
:1019A000012084F83C0042B1042A18D0082A2AD029
:1019B0000C2A4DD139E0022070BD206800F044FFB0
:1019C0002068816941F0080181612068816921F006
:1019D00004018161206881692A69114311E020684E
:1019E00000F05AFF2068816941F40061816120683C
:1019F000816921F480618161206881692A6941EAF5
:101A00000221816124E0206800F072FF2068C16932
:101A100041F00801C1612068C16921F00401C16180
:101A20002068C1692A69114311E0206800F08CFF29
:101A30002068C16941F40061C1612068C16921F475
:101A40008061C1612068C1692A6941EA0221C161DE
:101A5000002084F83C0070BD10B5040003D094F859
:101A60003D0010B107E0012010BD002084F83C00CB
:101A7000204600F01FF8022084F83D00211D206858
:101A800000F08CFE012084F8460084F83E0084F8C3
:101A90003F0084F8400084F8410084F8420084F854
:101AA000430084F8440084F8450084F83D00002099
:101AB00010BD000008B50068B0F1804F08D105489E
:101AC000C16941F00101C161C06900F001000090ED
:101AD00008BD0000001002407047000010B5044629
:101AE000022249B104290ED0082913D094F84100EC
:101AF000012816D0012010BD94F83E000128F9D12C
:101B000084F83E200FE094F83F000128F2D184F8D9
:101B10003F2008E094F840000128EBD184F84020F1
:101B200001E084F841200122206800F06DFE0F4999
:101B30002068884203D1426C42F40042426420682B
:101B4000884208D0B0F1804F05D00949884202D0C0
:101B50000849884204D1816801F00701062903D0B1
:101B6000016841F001010160002010BD002C01401E
:101B70000004004000080040704770B5044690F82B
:101B80003C00012812D0012584F83C50022084F842
:101B90003D00204600F0FAFE01004FF0000007D0A3
:101BA00084F83D5084F83C00012070BD022070BDD7
:101BB0002168CA6822F04002CA602168CA6822F41B
:101BC0008042CA6084F83D5084F83C00002070BD1B
:101BD0007047704770470000F8B502680446106807
:101BE000D168536910F00F0F4FF0000553D003F088
:101BF000010601F4907737435FD0C20705D0CA05CC
:101C000003D5226C42F001022264420705D5DA07AF
:101C100003D0226C42F002022264820705D5DA0763
:101C200003D0226C42F004022264020707D501F0BF
:101C30002002324303D0226C42F008022264226C5C
:101C4000002A34D0800604D5880602D5204600F04C
:101C50006AFF20684069216CC0F38010090700D436
:101C600030B3204600F047FF2068416949061BD584
:101C7000416921F040014161A06BA8B1584941631D
:101C8000A06BFEF7B9FC002811D0A06B416B01B02E
:101C9000BDE8F040084783060FD58B060DD52046DA
:101CA000BDE8F84000F03FBF2046FFF793FFF8BDC6
:101CB0002046FFF78FFF2564F8BD266B2023012EF9
:101CC00052D1C60650D5CE064ED510685068009049
:101CD000506940062AD5A16B086840680004000CD2
:101CE000EAD0A68D8642E7D9E0858869202818D0F9
:101CF000D06820F48070D0602068416921F0010133
:101D000041612068416921F04001416184F83E3021
:101D100025632068C16821F01001C160A06BFEF747
:101D200047FCA08DE18D401A81B219E0A08DE18DB4
:101D3000401A81B2E08D0028BED00029BCD0D06806
:101D400020F49070D0602068426922F00102426164
:101D500084F83E3025632068C26822F01002C26019
:101D60002046FFF736FFF8BD05062BD50D0629D511
:101D700094F83D002128F6D1A068B0F5805F01D12C
:101D80002069B0B1206A411C216221680078486056
:101D9000E08C401E0004000CE084E4D12068C1689F
:101DA00021F08001C1602068C16841F04001C1603C
:101DB000F8BD206A0088C0F308005060206A801CCB
:101DC0002062E5E74006F3D54806F1D5D168204604
:101DD00021F04001D16084F83D3000F08BF8F8BD6F
:101DE000E72A000870B5040004D094F83D000025EF
:101DF00010B106E0012070BD84F83C50204600F090
:101E000023F8242084F83D002068C16821F40051A3
:101E1000C160204600F0E2FE2068016921F4904193
:101E200001612068416921F02A0141612068C1688F
:101E300041F40051C1602564202084F83D0084F8FD
:101E40003E00002070BD000030B585B00024009435
:101E50000194029403940068184988422CD11848D0
:101E6000C16941F48021C161C16901F480210491FB
:101E7000816941F0080181618069124D00F008001C
:101E800004904FF4806000900220019003200390A2
:101E900069462846FEF70EFCE814CDE900046946C1
:101EA00028460294FEF706FC002211462720FFF781
:101EB0001FF82720FFF70EF805B030BD004800409E
:101EC00000100240000C014090F83E30202B0ED153
:101ED00059B152B190F83C30012B08D0012380F861
:101EE0003C300023036300F0D5BE01207047022080
:101EF000704770477047FEE701684A69D243520550
:101F00000FD46FF480624A61002140F8301F202214
:101F100042738173026942F004020261017301207D
:101F200070470020704700002DE9F84F0446006814
:101F300089460B9D01689846174641F4806101600F
:101F40002068016841F48071016000954FF0011B29
:101F50000022594620460A9B00F0DEF84FF4007A32
:101F600040B120680068C00501D5C4F840A0032036
:101F7000BDE8F88F216809F0FE0008612B4628496A
:101F800020460A9A00F0FCF8F0BB2068416980699D
:101F900000902A4620460A9900F070F940B1206C62
:101FA00004283AD12068016841F40071016034E0EE
:101FB000FEB2B8F1010F09D02168380A08612A463B
:101FC00020460A9900F05AF90028E8D120680661F5
:101FD0002A4620460A9900F051F90028DFD12068EE
:101FE000016841F480710160009500225946204645
:101FF0000A9B00F091F80028B3D1216809F0FF0096
:1020000040F00100086100E007E02B46044920464B
:102010000A9A00F0B5F80028AAD00120A8E700002D
:10202000020001002DE9F843044600680D46DDE991
:10203000089701689846164641F4807101604B4646
:1020400000224FF001112046009700F065F848B1DA
:1020500020680068C00502D54FF40070206403209A
:10206000BDE8F883216805F0FE0008613B464A465A
:102070001549204600F084F888B9206841698069D4
:1020800000903A464946204600F0F8F848B1206CE6
:10209000042804D12068016841F400710160012026
:1020A000DEE7F5B2B8F1010F09D02168300A086106
:1020B0003A464946204600F0E1F80028E7D120687A
:1020C00005610020CCE700000200010070B5164653
:1020D0000D4604460DE02046FFF70EFF08B1012033
:1020E00070BD681C05D0FEF7DBFB801BA84207D83B
:1020F00035B120684069C0434007ECD4002070BD72
:10210000002044F8300F20216173A073216941F051
:10211000200121612073E2E72DE9F0471E46904639
:102120000D460446C1F30747DDF8209008E0701C17
:1021300006D0FEF7B5FBA0EB0900B0420FD876B190
:102140002068012F18D0806925EA00000004000CE7
:1021500014D000214145EAD00020BDE8F0870020DE
:1021600044F8300F20216173A073216941F02001F0
:10217000216120730120F0E74069E5E70121E9E7EB
:102180002DE9F0479A4691460E46044600254FF049
:102190002008C1F3074725E020684069C043400597
:1021A00014D42068016841F40071016021686FF463
:1021B00080604861256384F83D8084F83E50206C3F
:1021C00040F00400206484F83C501FE0B9F1FF3F68
:1021D00008D0FEF765FBA0EB0A0149450CD8B9F120
:1021E000000F09D02068012F13D0806926EA000073
:1021F0000004000C0BD0CFE744F8305F84F80D806A
:10220000A573206940F02000206125730120BDE8FE
:10221000F0874069EAE72DE9F041002590460E4637
:102220000446202717E04069C043C0060CD454F888
:10223000301B6FF01000486144F810596777A5779C
:10224000206A2062257717E0FEF72AFBA0EB080042
:10225000B04208D83EB120684169C9434906E2D47A
:102260000020BDE8F08144F8305F6773A5732069F2
:1022700040F02000206125730120F2E770B516467A
:102280000D4604460DE02046FFF736FE08B101205A
:1022900070BD681C05D0FEF703FB801BA84207D861
:1022A00035B120684069C0430006ECD4002070BD01
:1022B000002044F8300F20216173A073216941F0A0
:1022C000200121612073E2E77CB514460D460646E5
:1022D0006A4606213B2000F07DF800280BD1BDF8AE
:1022E000001049BA3180BDF8021049BA2980BDF802
:1022F000041049BA21807CBD7CB514460D460646C3
:102300006A460621432000F065F800280BD1BDF88D
:10231000001049BA3180BDF8021049BA2980BDF8D1
:10232000041049BA21807CBD10B51C48FEF7BEFAE6
:1023300080216B2000F098F800216B2000F094F8C9
:10234000032000F05CF8002000F054F8322000F088
:1023500073F80021382000F087F800216A2000F08F
:1023600083F80021232000F07FF88021372000F03F
:102370007BF8752000F014F8682801D0012010BD0A
:1023800001216B2000F070F800216C2000F06CF847
:10239000322000F051F8002010BD00005000002055
:1023A0001FB500218DF80C1040F6FF73012203A920
:1023B0008DE80E0013460246D1210548FEF73AFB90
:1023C0006420FEF765F99DF80C0004B010BD000014
:1023D000500000200EB540F6FF730092CDE90113C6
:1023E00002460123D1210248FEF724FB00200EBD46
:1023F00050000020C006010E1C2000F035B8C006B9
:10240000010E1B2000F030B8BC2801D3012110E0E0
:10241000622801D302210CE02A2801D3032108E01D
:10242000142801D3042104E00A2801D3052100E087
:1024300006211A2000F018B810B504464FF47A703F
:10244000844201D9044602E0042C00D20424B0FBEB
:10245000F4F0401EC1B2192000F006F86008BDE893
:102460001040FFF7D1BF00001FB540F6FF738DF895
:102470000C10012203A98DE80E0013460246D0215C
:102480000448FEF7FFFB6420FEF702F904B00020C9
:1024900010BD000050000020F0B585B000241C489D
:1024A0000094019402940394816941F020018161B8
:1024B000816901F020010491816941F00401816189
:1024C000816901F004010491816941F00801816191
:1024D0008069104F00F008004FF47046049000220D
:1024E00031463846FEF7D6F90325CDE90054694652
:1024F00009480294FEF7DEF801AA0120009682E85E
:10250000310069463846FEF7D5F805B0F0BD000049
:1025100000100240000C0140000801400D4810B5B9
:102520000B4901600C49416000214FF480428160F9
:10253000C0E9031241618161C1610162FEF7B6F930
:10254000002803D0BDE81040FEF71FB810BD000002
:102550000054004050000020A086010010B58AB051
:10256000002407941C2168460894FDF742FE1B488E
:102570004FF0804101604721C0E9011440F2E7318A
:10258000C0E903148461FFF767FA08B1FDF7FDFFA6
:10259000079407A911480894FEF76EFF08B1FDF7EC
:1025A000F4FF602000904FF4FA70CDE90104082296
:1025B00069460A480494FFF7ECF908B1FDF7E5FF16
:1025C0000C22694605480194FFF7E3F908B1FDF7CD
:1025D000DCFF0248FFF7B8F90AB010BDA4000020E4
:1025E00010B590B0002409940A940B94142104A807
:1025F0000C94FDF7FEFD26480D940E940094019472
:1026000002942249039401604721C0E9011441F278
:102610008731C0E9031480218161FEF761FF08B1B1
:10262000FDF7B3FF4FF48050099009A91848FEF751
:10263000B7FF08B1FDF7A9FF1548FFF7A4F808B1E7
:10264000FDF7A3FF049404A911480594FFF795FA38
:1026500008B1FDF79AFF7020CDE90D040DA90C48D3
:10266000FEF70AFF08B1FDF790FF0120CDE9004019
:1026700002940022694606480394FEF7FDFF0028F5
:1026800001D0FDF782FF10B010BD00000004004033
:10269000EC0000200C4810B50A4901604FF41651B7
:1026A0004160002181600C22C160C0E90412816197
:1026B000C161FFF797FB002803D0BDE81040FDF78C
:1026C00064BF10BD0048004034010020FEE7FEE773
:1026D00070477047064A126831B1012907D110646A
:1026E0000C210348FFF7FAB9D0630821F9E77047D6
:1026F000A400002010B5FEF795FB064C6068052885
:1027000005DDFDF745FFFDF7BFFE00206060401CC2
:10271000606010BD3000002030B58FB028216846C1
:10272000FDF767FD14210AA8FDF763FD01210804E8
:10273000CDE900100024029402250491CDE9075050
:102740004FF4E01009906846FEF7F0FC08B172B64D
:10275000FEE70F20CDE90A054FF48060CDE90C407B
:1027600002210AA80E94FEF7F5FB002801D072B6EC
:10277000FEE70FB030BD704710B50648FFF731F8DF
:10278000FDF706FFFDF780FE03484168491C4160E4
:1027900010BD0000EC00002030000020F0B5026801
:1027A000164B174C174D4FF08047984205D0B84252
:1027B00003D0A04201D0A84203D122F070064A689B
:1027C0003243984205D0B84203D0A04201D0A8427B
:1027D00003D122F44074CA6822434C6922F080027B
:1027E000224302608A68C2620A688262984201D10A
:1027F0000969016301214161F0BD0000002C014025
:10280000000400400008004010B501F01F03012142
:10281000046A99408C430462016A9A401143016240
:1028200010BD10B5846842EA032224F47F440A43B1
:102830002243826010BD826822F070020A4342F097
:10284000070181607047000030B5026A22F0010282
:102850000262026A4368846924F073050C682C43A1
:1028600022F002058A682A430A4DA8420BD122F0C1
:102870000805CA6823F440732A434D6922F0040214
:102880001D438B692B434360846149684163026245
:1028900030BD0000002C014030B5026A22F0100269
:1028A0000262026A436884690D6824F4E64444EADB
:1028B00005248D6822F0200242EA05120B4DA84241
:1028C0000ED1CD6822F0800242EA05124D6923F450
:1028D000406343EA85038D6922F0400243EA8503A1
:1028E0004360846149688163026230BD002C01400D
:1028F00030B5026A22F480720262036A4268C469D7
:1029000023F4007324F073050C682C438D6843EAAC
:1029100005230C4DA8420ED1CD6823F4006343EA91
:1029200005234D6922F4405242EA05128D6923F4D1
:10293000806342EA05124260C4614968C163036270
:1029400030BD0000002C014030B5026A22F48052F4
:102950000262046A4268C3690D6823F4E64343EAED
:1029600005238D6824F4005444EA0534064DA8423A
:1029700004D14D6922F4804242EA85124260C3616B
:1029800049680164046230BD002C014010B5036841
:102990009A6822F070044A68224322F007040A6809
:1029A00022439A604A6812F00F0F30D11211082AA0
:1029B0002DD2DFE802F02C2C2C2C0B2127040B69E4
:1029C000D1E902210068FFF72CFF20E00A68052A00
:1029D00010D00268136A146A24F0010414620268B9
:1029E0009469096924F0F00444EA011191610068D6
:1029F00003620CE0012010BD0A698968006800F0DC
:102A000008F804E00A698968006800F03FF80020CF
:102A100010BD10B5036A046A24F0010404628469DD
:102A200024F0F00444EA021423F00A020A43846109
:102A3000026210BD70B5046A24F001040462846966
:102A4000056A0F4EB04208D0B0F1804F05D00D4E50
:102A5000B04202D00C4EB04203D124F00304144320
:102A600001E044F001041A0724F0F00444EA126281
:102A700025F00A0301F00A0119438261016270BD69
:102A8000002C0140000400400008004010B5036A1B
:102A900023F0100303628369046A23F4704343EA5A
:102AA000023224F0A00343EA01118261016210BDE9
:102AB00030B5046A24F0100404628469056A24F4C1
:102AC000407444EA022222F470444FF6FF7202EA94
:102AD00003322243A02425F0A00304EA0111194384
:102AE0008261016230BD10B5406A0021C185C18498
:102AF000FFF770F810BD0168CA6822F49072CA60CE
:102B000001684A6922F001024A61016B012904D17E
:102B10000168CA6822F01002CA60202180F83E10C5
:102B200000210163704708B590F83E10222901D0BA
:102B3000022008BD82684FF480539A4201D1016996
:102B400021B1816A9A421BD04AB10AE00268816AC7
:102B50005268C2F308020A80816A891C08E002698F
:102B600072B10268526802F07F020A70816A491CE1
:102B70008162C18D491E0904090CC18503D019E089
:102B800002685268F1E70168CA6822F02002CA6050
:102B90000168CA6822F48072CA6001684A6922F03A
:102BA00001024A61202180F83E10016B012903D007
:102BB000FFF79FF9002008BD002101630168CA6882
:102BC00022F01002CA6001680A68D20602D50A68BB
:102BD00049680091818DFEF7FCFFEBE770B5044674
:102BE00000680169E26821F44051114301612169E3
:102BF000A0680843616908432168CA6841F20C6310
:102C00009A430243CA6020684169A26921F4407175
:102C1000114341611E492068884202D1FEF740FA03
:102C200001E0FEF72DFA00EBC00101EB0012606835
:102C300064218000B2FBF0F3B3FBF1F36FF01806F0
:102C40007343B2FBF0F5B2FBF0F605EB83053223DC
:102C500003EB0515B5FBF1F5B6FBF1F605F0F00554
:102C600005EB0615B2FBF0F6B2FBF0F0B0FBF1F0AD
:102C70006FF01802504306EB800003EB0010B0FB2E
:102C8000F1F0216800F00F002844886070BD00005A
:102C90000038014081628285C285002101642222C0
:102CA00080F83E2080F83C100168CA6842F48072C7
:102CB000CA6001684A6942F001024A610068C1685D
:102CC00041F02001C16000207047000070B5194834
:102CD000FEF782FF184C1949207863780B54401C8A
:102CE000C2B222700A2B1AD108780025A0F1610324
:102CF000062B13D9782802D0792808D00EE0481C7A
:102D0000114401F8015CFDF767FAA06006E0481C79
:102D1000114401F8015CFDF75FFAE06025700120C5
:102D2000A070BDE8704004490246491C0148FFF705
:102D3000CBB80000340100203000002078010020D2
:102D4000FEE7490050EAC12018BF04204A0D18BF11
:102D500040F0010040F2FF72B2EB515F08BF40F05B
:102D60000200012808BF052070470907090E002846
:102D700004DB00F1E02080F80014704700F00F0041
:102D800000F1E02080F8141D70472DE9F0414F1E3E
:102D900000EBC7010446D1E9000115461E4637F095
:102DA00006020DD02A46334600F0AAFC7F1E04EB33
:102DB000C703D3E9002300F083FA37F00602F1D10C
:102DC000022F25D0042F13D0062F18BFBDE8F081A5
:102DD0002A46334600F094FCD4E90A2300F070FA46
:102DE0002A46334600F08CFCD4E9082300F068FA48
:102DF0002A46334600F084FCD4E9062300F060FA4A
:102E00002A46334600F07CFCD4E9042300F058FA4B
:102E10002A46334600F074FCD4E9022300F050FA4D
:102E20002A46334600F06CFCD4E90023BDE8F041AB
:102E300000F046BA012201F058B800F041BA000093
:102E4000024A0020110701F050B8000001FDFFFF09
:102E50002DE9F84F04460D4621F0004000917349DA
:102E6000814211DC7249884201DC06D12CB1204636
:102E70002946BDE8F84FFFF7DDBF6E48002DCCBFF7
:102E80006D496E49BDE8F88F6D49814211DD6D498C
:102E90008142D8BF4FF0FF366DDD20462946FFF74F
:102EA00050FF042808BFFFF7CBFF20462946BDE8A6
:102EB000F88F6549654F25F00045814233DD64494F
:102EC000814219DD002632464FF0804320462946D4
:102ED00000F0F6F980468A4601222046294601F094
:102EE00004F800223B4600F015FD4246534600F030
:102EF00097FA04460D463EE001260022BA463B46BC
:102F00002046294600F0DCF980460F460022534651
:102F10002046294600F0FEFC42463B4600F080FA7F
:102F200004460D4627E04B4981421BDDDFF828A10E
:102F30000226002253462046294600F0E1FB0022EB
:102F40003B4600F0BDF980460F460022534620461E
:102F5000294600F0DFFC42463B4600F061FA044699
:102F60000D4608E0032622462B4600203B4900F090
:102F700057FA04460D4622462B461046194600F0E5
:102F8000BFFB8B46824602460B4600F0B9FB074664
:102F90000246334888460B4606217844FFF7F5FE83
:102FA00052465B4600F0ACFB82462E488B463A46C2
:102FB000434605217844FFF7E8FE3A46434600F0D1
:102FC0009FFB02460B46002E504659460CDA00F095
:102FD00077F922462B4600F093FB01B022462B46A0
:102FE000BDE8F04F00F08ABC00F06AF922462B469B
:102FF00000F086FB1C4A7A4402EBC603D3E90023A7
:1030000000F088FC22462B4600F084FC174A7A44E4
:1030100002EBC603D3E9002300F070FC009A002AFB
:10302000B8BF81F00041BDE8F88F000000001044F7
:103030000000F07F182D4454FB21F93FFB21F9BF1C
:103040000000DC3F0000203E0000F33F0000F03FA6
:103050000000E63F008003400000F83F0000F0BFA2
:103060005A10000018100000B60F00007E0F00007C
:103070002DE9F04D9446CCF1000423F000464CEAD3
:103080000404524F46EAD4749A46884621F000421E
:10309000BC4206D8454240EA050442EAD474BC4228
:1030A00004D9BDE8F04D6246FFF7C7BEAAF140550E
:1030B000A5F17F6555EA0C040BD0022404EAAA743A
:1030C000434DDFF810E144EAD87452EA000B04D013
:1030D0000CE0BDE8F04DFFF7BBBE002C14BF012C87
:1030E000BDE8F08D022C30D0032C32D056EA0C0B08
:1030F0000AD0BE4220D1BA4209D126F0804622F041
:1031000080423346114617E000291ADB25E0DFF83C
:10311000C8B0FB44002C04BFDBE90001BDE8F08D22
:10312000012C02BFDBE9000181F00041BDE8F08D18
:10313000022C0AD0032C0CD0BA4212D1B8F1000FE5
:103140000BDA23482549BDE8F08D28462449BDE81F
:10315000F08D28467146BDE8F08D1D482149BDE837
:10316000F08D921B12153C2AC4BF19481D490EDC74
:10317000BAF1000FBEBF12F13C0F0020014606DB82
:10318000624600F04DF921F00041FFF761FE002C8E
:1031900008BFBDE8F08D012C04BF81F00041BDE8FF
:1031A000F08D114A114B022C07D000F0B3FB2A46D8
:1031B000BDE8F04D0A4B00F0ADBB00F0ABFB2A467A
:1031C000BDE8F04D064B00F099BB00000000F07F19
:1031D000182D4454FB2109C0120F0000FB21F9BF38
:1031E000FB210940FB21F93F075C143326A6A13CD3
:1031F000FDF720FEFFF790FAFFF74EF9FFF78EF983
:10320000FFF7ACF9FFF746FAFFF7EAF901214FF4AF
:10321000FA70FFF75FFAFFF787F8012202490348C7
:10322000FEF752FEFEE700003100002034010020CE
:1032300010B500290AD00878002807D0054878443E
:10324000FDF7DAF8002801D0002010BD02487844CC
:1032500010BD0000120E00000A0E000021F0004216
:10326000A2F16052B2F5801F01F0004328BFD2F1F5
:103270007F6C0BD95FEA001C43EAC20242EB50703C
:1032800018BF704728BF20F001007047B2F5801FBB
:10329000BCBF184670474FEA410C1CF5001F02D214
:1032A000084600F076BD70B500F0D4FA0000008941
:1032B000FFF7F6BF4FF00040A0F580007047000018
:1032C00010B591EA030F48BF83F0004300F12A8351
:1032D000841A71EB030C05D2121943EB0C03001B8B
:1032E00061EB0C01DFF824E14FEA1154A4EB135C0D
:1032F0001EEA430F18BF9EEA445F73D023EA0E0311
:10330000DCF1200E21EA045143F4801332D322FA77
:103310000CFE10EB0E0023FA0CFE41EB0E01CCF17B
:10332000200E03FA0EFE10EB0E0051F10001B1F574
:10333000801FCCF1200E32D201EB045112FA0EF2B2
:10334000BDE8104058BF7047401C38BF5FEA4202DA
:1033500018BF7047002814BF20F0010041F10001A0
:103360004FEA410313F5001F38BF7047A1F1C04178
:1033700000F0BEBA012A43EB0302ACF1200CDCF1F1
:103380001F0E32BF4FF0000E23FA0CF310EB0300B8
:1033900041EB0451B4EB115FD0D0A1EB045101F526
:1033A000801149085FEA300001EB04510ED350F15F
:1033B000000038BF12FA0EFE08D1BDE81040C9E780
:1033C000401C38BF5FEA4202CAD1C3E7BDE81040E3
:1033D0004FEA410313F5001F38BF7047A1F1C04108
:1033E00000F086BA9EEA445F08D011EA5E0FBDE89D
:1033F000104004BF01F0004100207047BDE81040BC
:1034000070B500F027FA00BF64FBBE3E0000E0FF8D
:1034100002494FF0000000F036BD00BF0000F87F09
:103420002DE9C04130B4DFF8A0C23CEA111418BF46
:103430003CEA131400F0EC8081EA03051CEA111445
:1034400044EAD57418BF1CEA131500F0C780A4EB3A
:1034500005044FF0004545EAC12145EAC32341EA8E
:10346000505143EA525304F17F74994204F50034F9
:103470004FEAC0204FEAC22208BF904200F09C8071
:103480004FEA13650FF24016765D4FEA134506FBCF
:1034900005F7C7F1807706FB07F74FEAD737A7FB99
:1034A00003687642C8F58038A7FB06CE38BFA8F17E
:1034B000010807FB08E64FF0000EA6FB028CE6FBB6
:1034C00003CEDCF1000CCEF1004E38BFAEF1010EA0
:1034D000A6FB0C584FF000074FF00005E6FB0E87E7
:1034E000A1FB08C6A0FB07CE16EB0E0645F10005B2
:1034F000E1FB076515F1E04E7EBFA4F580345FEA7D
:1035000046066D4116F1800745F100054FEA172781
:103510004FEA066647EA0567A6F1DE46B6F1805F28
:103520004FEA15251FD9384624F0010C05EBC4716C
:10353000BCF1FE6F01EB0C1102D8F0BCBDE80081BC
:1035400024425CBF01F5801E9EEAC47F02D4F0BC19
:10355000BDE80081244238D4F0BCA1F1C041BDE8EF
:10356000004100F0C5B94FEAD22242EA43524FEA85
:10357000D323A7FB02864FEAD02040EA415007FB45
:1035800003661EEA0E0F4FEAD12105FB026658BF03
:10359000A6EB0056B6EB00564FEA520E4EEAC37E3B
:1035A00018EB0E0E56EB530EBDD518EB02085E411C
:1035B0007F1C55F10005B6E74FF480154FF000076A
:1035C0004FF000064FF00008ADE7F0BC4FF00000F0
:1035D00001F1C04101F00041BDE8008111EA0C1F7A
:1035E0000CEA131500D00CE013EA0C1F00F0258044
:1035F0004FF00000F0BC81EA030101F00041BDE89A
:103600000081F0BCBDE8004181EA030100F070B91F
:10361000F0BCBDE8004170B500F01CF9097EFC3E2D
:1036200000F007B881EA03014FF0000001F000410B
:10363000704781EA030100F05BB9F0BCBDE80041CE
:103640004FF0000021497047FFFDFBF9F7F5F4F258
:10365000F0EEEDEBE9E8E6E4E3E1E0DEDDDBDAD82D
:10366000D7D5D4D3D1D0CFCDCCCBCAC8C7C6C5C48B
:10367000C2C1C0BFBEBDBCBBBAB9B8B7B6B5B4B3A2
:10368000B2B1B0AFAEADACABAAA9A8A8A7A6A5A48D
:10369000A3A3A2A1A09F9F9E9D9C9C9B9A99999851
:1036A0009797969595949393929191908F8F8E8EF4
:1036B0008D8C8C8B8B8A8989888887878685858481
:1036C00084838382828181800000FF070000F87F6D
:1036D00010F0004248BF4042B0FA80F310FA03F104
:1036E0000AD0C3F11D0303F580634FEA415002EB9A
:1036F000035202EBD12170474FF0000070470000E9
:10370000DFF848C170B51CEA111E1EBF1CEA131574
:103710009EEA0C0F95EA0C0F00F06F8081EA03041B
:1037200023EA4C134EEAD47E21EA4C1141F4801175
:1037300043F48013AE44A1FB024CA0FB0365AEF141
:103740007F7E361955EB0C05A1FB034C4CF10003B1
:10375000A0FB021C16EB0C06654153F10003094265
:1037600018BF46F0010613F4007F0BD14FEA033176
:103770004FEA0530340341EA155140EA16506FF024
:1037800003020AE04FEAC3214FEAC520F40241EAEE
:10379000555140EA56506FF0020202EB2E4201EB07
:1037A000025585EACE710AD05FEA440C18BF24F0B6
:1037B000004450F1000041F1000120EAD47040F2D1
:1037C000FE7C624500D270BDA84214BF4FF0804419
:1037D0004FF04044002E08BF0024BEF1806FA8BF08
:1037E000A1F1C041BDE8704080F282804FF000003E
:1037F00001F1C04101F0004170479EEA0C0F0CEA54
:10380000131518BF95EA0C0F06D04FF0000081EA9F
:10381000030E0EF0004170BD00F01CF88900013E5F
:1038200000F007B800F009B84FEA430C5FEA5C5CAF
:1038300008D081EA030100F05BB84FEA410C5FEA6F
:103840005C5CF6D14FF00000014970470000FF07B3
:103850000000F87F0EF1020E2EF0030E5EF8046BEE
:10386000364205D4012A43EB030515F5001F12D893
:10387000012841EB010C1CF5001F0CD80ED14FEABA
:10388000D17C15F5001F0CEB4C0C0CF1020C08BFA1
:103890004CEBD37C04E04FF0080C01E04FEAD37C02
:1038A0000CEB4C0526FA05F606F00706B6F1040CFB
:1038B00006D20EEB860CBDE870404CF0010C604760
:1038C000DFE80CF0090B02024FF000414FF000005E
:1038D000A1F5002170BD19461046012851EB0104E5
:1038E00018BFD4F5001484BF002001F0004170BD62
:1038F0000808A0F500114FEA3101704791EA030F63
:1039000010B581F000413FF5E3AC83F0004300F0D7
:1039100009B8000010B591EA030F48BF83F00043D7
:103920003FF5D6AC841A71EB030C07D212198CF058
:10393000004C43EB0C03001B61EB0C01DFF8A4E12E
:103940004FEA1154A4EB135C1EEA430F18BF9EEA22
:10395000445F00F0B08023EA6E03524221EA045132
:10396000C3EB6E0338BF5B1EDCF1200E25D322FAB9
:103970000CFE10EB0E0043FA0CFE41EB0E01CCF1F5
:10398000200E03FA0EFE10EB0E0051F10001CCF1F7
:10399000200E29D412FA0EF201EB0451BDE81040BA
:1039A00058BF7047401C1CBFB2F1004F7047002841
:1039B0000CBF491C20F00100704712EB020E43EBD4
:1039C000030218BF4FF0010E4EEA4202ACF1200C88
:1039D000DCF11E0E54D943FA0CFE10EB0E0051F12F
:1039E000FF31CCF11E0ED5D50EF1010E12FA0EFEEE
:1039F000404141EB010101EB445C5FEA5C5C10D9A2
:103A000010EBDE7001EB045138BFBEF1004FBDE892
:103A1000104018BF704700280CBF491C20F001005F
:103A2000704730D24FEAD42C11F5001124F4006411
:103A30001BD0B1FA81F20B3AA41AA41ED2F12003D2
:103A4000914030FA03F31943904001EBCC71002C04
:103A500001EB0451BDE81040A8BF704701F1C0411F
:103A60004FF0000001F000417047B0FA80F310FA07
:103A700003F100D110BDE41A173C4805C90AE4E778
:103A800001EB045110BD491001EB0451BDE8104099
:103A90004FEA300002E04FF0000170474A0008BFD3
:103AA0000042F8D0B2F5001F28BF704701F0004176
:103AB0004FF0000070479EEA445F07D011EA5E0FA6
:103AC000BDE8104004BF002100207047BDE8104051
:103AD00070B5FFF7BFFE00BF40DFF63E83F0004148
:103AE000104670470000E0FF43004FEAD30C4FEA56
:103AF0003C0C43401FBF40070CF1605113F0FE4FD8
:103B000070471CF0006F03D100200CF0004170479B
:103B10000CF0004343EA507010B540EACC0000F0CE
:103B2000F2F800BF000000924FEA0001FFF7E0BE8C
:103B30004FF000414FF00000A1F500217047000058
:103B400090EA010F48BF81F0004100F12E81421A36
:103B50003CBF801A89184FEAD0524FF07F4C1CEAC4
:103B6000410FA2EBD15318BF9CEA026F00F03B80DB
:103B70004FF0004C4CEA00204CEA012121FA03FCF2
:103B800010EB0C0C1ED202F1FF325FEA1C2040EB5E
:103B9000C25038BF70471CF07F0F4FEA400C18BF6F
:103BA000BCF17F4F38BF7047C3F12003994008BF75
:103BB00020F00100BCF17F4F38BF7047A0F1C0403A
:103BC00000F0E7B84FEA3C00000A40EBC25028BFC3
:103BD0001CF0FF0F4FEA400CE6D018BFBCF17F4F3E
:103BE00038BF7047EAE79CEA026F05D010EA5C0F25
:103BF00008BF00F00040704710B500F084F800BF27
:103C000064FBBE3E4FF47F0C1CEAD0121EBF1CEAC0
:103C1000D11392EA0C0F93EA0C0F00F0478090EA60
:103C2000010F48BF42F480724FF0004C4CEA002074
:103C30004CEA012102EB0302A0FB0113A2F50002F2
:103C4000002918BF43F001035B0028BF4FEA33038C
:103C500042EB22425FEA132C4CEBC2502EBFBCEB6E
:103C6000436FB2F57C0F70474FEA036CBCF1004F15
:103C700008BF20F00100B2F57C0F38BF70470BD5AC
:103C800082F0FF0212F5803FC8BF704700F1C040CC
:103C9000D8BF00F00040704700F5000C5FEA4C0C04
:103CA00048BF7047B0F1C04000F073B890EA010F10
:103CB0000CEAD11348BF42F48072624538BF6345B5
:103CC00004D280EA010000F00040704710B500F017
:103CD0001AF800BF8900013E00F007B800F009B8EB
:103CE0005FEA410C5FEA1C6C08D080EA010000F03A
:103CF00050B85FEA400C5FEA1C6CF6D14FF0004010
:103D0000A0F5800070470EF1020E2EF0030E5EF853
:103D1000044B244204D44FEA4102B2F17F4F11D840
:103D20004FEA4003B3F17F4F0CD80ED14FEAD07C5D
:103D3000B2F17F4F0CEB4C0C0CF1020C08BF4CEBBA
:103D4000D17C04E04FF0080C01E04FEAD17C0CEB91
:103D50004C0324FA03F404F00704B4F1040C06D273
:103D60000EEB840CBDE810404CF0010C6047DFE81E
:103D70000CF0070802024FF00040A0F5800010BDD3
:103D80000846420018BFD2F1807288BF00F00040A0
:103D900010BDFF2141EAD050C005704790EA010FE5
:103DA00048BF81F000413FF5D2AE421A04D882F0FC
:103DB0000042A0EB020011444FEAD0524FF07F4C7A
:103DC0001CEA410FA2EBD15318BF9CEA026F4AD004
:103DD0004FF0004C4CEA00204CEA012121FA03FC90
:103DE000B0EB0C0C0FD412F0FE0F36D05FEA4C0093
:103DF0001DD5001240EBC25038BF70471CF03F0F7A
:103E000018BF70470BE0A2F101025FEA1C2040EBF3
:103E1000C25038BF70471CF07F0F18BF7047C3F106
:103E20002003994014BF401E20F001007047800815
:103E30004FEA122308BF7047B0FA80FCA2EB0C02D5
:103E4000CCF1280C60FA0CF093EA122F04BF00EBBF
:103E5000C25070474FEAC3707047130A5FEADC1024
:103E600008BF7047F6E79CEA026F04D010EA5C0FC7
:103E700008BF0020704710B5FFF745FF40DFF63E52
:103E800081F0004070470CF00F03092B08BF082099
:103E900000F059800A2B0BD0082B18BF704708BFC1
:103EA0001CF0400F0AD04FF000004FF000017047A7
:103EB0001CF0400F18BF4FF0004070471CF0100F6F
:103EC00008D020F0704300F07F4242EAD3014FEA6D
:103ED0004370704700F0604021F07F4242EA0002E8
:103EE00001F07F4040EA727070474FF0FF0C4CF4D5
:103EF000E06C1CEA11531CBF9CEA030C9445C2BF42
:103F0000DA4201EB02517047002B0DD0BCF1000FDB
:103F10000FD0002A01F00041A4BF41F0E04141F080
:103F20007F614FF00000704701F000414FF000004A
:103F3000704750EA01334FF09B0C18BF4CF0806C77
:103F40007FF466AA70471CF4801F11D01CF4E02F88
:103F500003D06FEACC31490070474FF04050EFF387
:103F6000008222F0704242EA000282F30088704729
:103F70004FF0000070470000000000000000010248
:103F80000304060708090000000001020304000002
:103F90004FBB610567ACDD3F182D4454FB21E93F61
:103FA0009BF681D20B73EF3F182D4454FB21F93F50
:103FB000E2652F227F2B7A3C075C143326A6813CD6
:103FC000BDCBF07A8807703C075C143326A6913C81
:103FD000C4EB98999999C9BF711623FEC671BCBFED
:103FE0006D9A74AFF2B0B3BF9AFDDE522DDEADBF55
:103FF0002F6C6A2C44B4A2BF0D5555555555D53F6D
:10400000FF8300922449C23F6E204CC5CD45B73F87
:10401000513DD0A0660DB13FEB0D76244B7BA93FFF
:1040200011DA22E33AAD903F0000000000000000EA
:104030006041000800000020500000002801000836
:10404000B041000850000020500800004401000862
:104050001001000043000000F8FFFFFF0040404057
:10406000404040404040414141414140404040404B
:1040700040404040404040404040404040050202F7
:1040800002020202020202020202020202202020B6
:104090002020202020202002020202020202909012
:1040A0009090909010101010101010101010101010
:1040B0001010101010101010020202020202888864
:1040C0008888888808080808080808080808080870
:1040D0000808080808080808020202024000000058
:1040E00000000000000000000000000000000000D0
:1040F00000000000000000000000000000000000C0
:1041000000000000000000000000000000000000AF
:10411000000000000000000000000000000000009F
:10412000000000000000000000000000000000008F
:10413000000000000000000000000000000000007F
:10414000000000000000000000000000000000006F
:10415000000000000000000000000000000000005F
:104160000000000000000000000000000AD7A33B90
:10417000000000000000000000000000000000003F
:10418000000000000000000000000000000000002F
:10419000000000000000000000000000000000001F
:1041A0000100000010000000000000000024F400E6
:04000005080000ED02
:00000001FF
