:020000040800F2
:1000000028080020A101000863220008371B00080F
:1000100061220008BB060008152700080000000048
:10002000000000000000000000000000672200083F
:10003000BD060008000000006522000889220008B3
:10004000BB010008BB010008BB010008BB010008A0
:10005000BB010008BB010008BB010008BB01000890
:10006000BB010008BB010008BB010008BB01000880
:10007000BB010008BB010008BB010008BB01000870
:10008000BB010008BB010008BB010008BB01000860
:10009000BB010008BB010008BB010008BB01000850
:1000A000BB010008BB010008BB010008BB01000840
:1000B000BB010008BB010008BB010008BB01000830
:1000C000BB010008BB010008BB010008BB01000820
:1000D000BB010008BB010008BB010008A126000805
:1000E000BB010008BB010008BB01000800F002F8DA
:1000F00000F047F80AA090E8000C82448344AAF17B
:100100000107DA4501D100F03CF8AFF2090EBAE878
:100110000F0013F0010F18BFFB1A43F0010318473B
:10012000C02A0000E02A0000103A24BF78C878C135
:10013000FAD8520724BF30C830C144BF04680C60ED
:10014000704700000023002400250026103A28BF35
:1001500078C1FBD8520728BF30C148BF0B60704739
:100160001FB59DE8030000F0C1F800F0F7F90400A6
:100170000020002102F04EFB401C60601FBD10B546
:1001800010BD00F0C6F91146FFF7EAFF02F0D4FAFD
:1001900000F0F6F903B4FFF7F2FF03BC00F026FA13
:1001A0000948804709480047FEE7FEE7FEE7FEE70B
:1001B000FEE7FEE7FEE7FEE7FEE7FEE70448054947
:1001C000054A064B70470000EB220008ED000008CE
:1001D00028020020280800202804002028040020ED
:1001E00070B5064600F062F8056806F10B0020F0D5
:1001F0000704B4429CBF002070BD2B466A68BAB1A8
:100200001068A04210D304F1080188423CBF506836
:10021000586007D35168101941601168091B0160CB
:1002200058601460101D70BD13465268002AE7D153
:100230002146284600F046F80028DED170BD70B592
:10024000064600F037F80468054630460A220021C9
:1002500000F0A9F82C6070BD4FF0000200B5134605
:1002600094469646203922BFA0E80C50A0E80C50D6
:10027000B1F12001BFF4F7AF090728BFA0E80C5087
:1002800048BF0CC05DF804EB890028BF40F8042B80
:1002900008BF704748BF20F8022B11F0804F18BFED
:1002A00000F8012B7047704770477047004870474F
:1002B000CC01002000487047C401002070477047FF
:1002C0007047704738B504460A4600206946AFF3C8
:1002D0000080002808BF38BD02460099204600F083
:1002E000A7F8012038BD012000F00BB9F8B5AFF335
:1002F0000080054600200C46102000BF0646A819C5
:10030000A0420DD9324669460020AFF300800700B5
:1003100008BF00F0F6F80098A04218BF0546C419BF
:10032000FFF7C4FF05600746F01D20F007004619DF
:10033000284600F00AF8B44208BFF8BDA21B3146B7
:100340003868BDE8F84000F073B800210160C0E9EA
:10035000011070471020704770B50446051FFFF765
:10036000A5FF0068002C14BF446870BD002C18BFA6
:10037000AC423CBF20466468F8D301680A18AA4220
:1003800018BF456003D12A680546114401602868FA
:100390004119A1421CBF6C6070BD61686960216831
:1003A0000844286070BD2DE9F04791460F4680460D
:1003B0000446002614F8015B2DB100F031F8006806
:1003C000405DC007F6D12B2D02D02D2D18D0641E14
:1003D0004A463946204600F045F827B13968A1421F
:1003E00001D1C7F800804FF0020471050BD54042DF
:1003F000002803DDFFF75EFF0460A007BDE8F0877B
:1004000046F48066E4E70028F8DAFFF753FF04605B
:100410006FF00040F2E7000000487047C401002080
:1004200010B500F09BF8001D10BD00BFE9230000CF
:10043000034640688C46002818BF88423CBF0346EC
:100440004068F8D318681844884207D00CF10300BC
:1004500020F00700001D411A521A0146081D0A60CB
:10046000FFF77ABF2DE9F05F824615468B460027DD
:100470000AF10104B9460078302801D09DB113E09B
:1004800014F8010B0127782803D0582801D045B172
:100490000AE00DB1102D07D1002714F8010B10252B
:1004A00002E0082500E00A250026B0460EE005FB24
:1004B000080005FB06F101271FFA80F801EB104642
:1004C000B6F5803F00D3B94614F8010B294600F079
:1004D00049F80028EBDABBF1000F05D00FB1641E1C
:1004E00000E05446CBF80040B9F1000F06D0FFF70A
:1004F000E1FE02210160C81EBDE8F09F48EA064007
:10050000FAE710B500F04AF8BDE8104000F041B835
:1005100070477546FFF780FFAE46050069465346B3
:1005200020F00700854618B020B5FFF747FEBDE86C
:1005300020404FF000064FF000074FF000084FF04A
:10054000000B21F00701AC46ACE8C009ACE8C009DB
:10055000ACE8C009ACE8C0098D4670470048704758
:10056000E40100203A2800D2303820F02002412A4D
:1005700001D3A2F13700884201D34FF0FF3070471A
:1005800010B50446AFF300802046BDE81040FFF7E9
:1005900001BE002801D000F029B8704710B501282D
:1005A00005D0002103A000F027F8012010BD09A10B
:1005B000F8E7000053494752544D454D3A204F75D6
:1005C00074206F662068656170206D656D6F72794B
:1005D000000000003A2048656170206D656D6F7203
:1005E0007920636F72727570746564000149182018
:1005F000ABBEFEE72600020070B505460C460A2099
:1006000000E06D1C00F052F835B128780028F8D1D0
:1006100002E0641C00F04AF814B120780028F8D1F8
:10062000BDE870400A2000F041B800004FF0013CE6
:1006300050F8042B51F8043B9A4221D1A2EB0C0351
:10064000934313EACC1317D150F8042B51F8043B11
:100650009A4215D1A2EB0C03934313EACC130BD1AE
:1006600050F8042B51F8043B9A4209D1A2EB0C0339
:10067000934313EACC13DBD04FF00000704700BF68
:10068000D01A01BAB1FA81F101F0180122FA01F091
:10069000CB40C1F12001DBB2C0B2C01A2CFA01F389
:1006A000D11A914311EAC311E6D1704708B56946E2
:1006B0008DF800000320ABBE08BDFEE7704772B6A0
:1006C000FEE710B590F821100022022905D0042180
:1006D000816380F82020012010BD01680B6823F0A1
:1006E0000E030B6001680B6823F001030B6090F8A8
:1006F0004030C46B012101FA03F3636080F82110DC
:1007000080F82020104610BD10B590F8211000246C
:10071000022903D00421816301243DE001680A68B5
:1007200022F00E020A6001680A6822F001020A60E3
:100730001A4A0168914201D1012121E0174A14327D
:10074000914201D110211BE0144A2832914201D17B
:10075000891515E0114A3C32914201D189140FE00C
:100760000E4A5032914202D14FF4803108E00B4AD8
:100770006432914202D14FF4801101E04FF0807158
:10078000064A083A5160012180F82110002180F8C2
:100790002010416B01B18847204610BD080002407F
:1007A00070B5044600F004F90546601C02D0044808
:1007B0000078044400F0FCF8401BA042FAD370BD5E
:1007C0000C0000202DE9F84FDFF8B891002409F162
:1007D000040A0AF1040B23460F270BF1040EC9E0AB
:1007E0000125A5402A40AA427DD1674ED1F804C018
:1007F000ACEB0608B44532D014DCBCF1030F3AD0A0
:1008000009DCBCF1000F2AD0BCF1010F1CD0BCF1F7
:10081000020F31D11DE0BCF1110F17D0BCF1120F46
:100820002AD119E0B8F5881F19D006DCB8F5803F49
:1008300015D0B8F5801F1FD111E0B8F5001F0ED0FC
:10084000B8F5041F18D10AE0CB6815E0CB681B1D72
:1008500012E0CB6808330FE0CB680C330CE08B68F8
:100860002BB1012B4FF0080303D0456104E00423B2
:1008700002E0056100E00023FF2A01D8064601E0FE
:1008800000F104064FEA840501D9A5F12005D6F848
:10089000008007FA05FC28EA0C0803FA05F548EA87
:1008A0000508C6F800804D68ED0062D5374DAE6989
:1008B00046F00106AE61AD6924F0030605F00105BE
:1008C0000095334D06EB050CDCF80850A607360FF3
:1008D00007FA06F825EA0805DFF8B880404503D195
:1008E0004FF0000817E044E0DFF8AC80404502D14B
:1008F0004FF001080FE0DFF8A480404502D14FF02F
:10090000020808E0DFF89880404502D14FF0030864
:1009100001E04FF0040808FA06F848EA0508CCF8A8
:1009200008804D68D9F80060ED034D4601D51643A7
:1009300000E096432E604D68DAF80060AD0355463E
:1009400001D5164300E096432E604D68DBF8006049
:10095000ED025D4601D5164300E096432E604D68DA
:10096000DEF80060AD02754601D5164300E09643FF
:100970002E60641C0D682A46E5407FF431AFBDE867
:10098000F88F000000040140000011100010024028
:100990000000014000080140000C0140001001402F
:1009A000001401400AB1016170470904FBE700002F
:1009B00001488068704700000C00002070B50400FA
:1009C00025D094F83D00002520B984F83C502046FD
:1009D00000F078FA242084F83D002068016821F0B6
:1009E000010101602068016841F400410160206854
:1009F000016821F40041016000F0CAFB4D4A6168C2
:100A0000914201D84C4900E04C49884201D2012072
:100A100070BD4B492368B0FBF1F15E6826F03F06DC
:100A20000E435E606368934206D94FF49673594350
:100A30004FF47A73B1FBF3F12368491C1E6A26F068
:100A40003F06314319626168914210D84900401E47
:100A5000B0FBF1F2521CC2F30B02042A01D20420B3
:100A600022E0B0FBF1F0401CC0F30B001CE0A268D8
:100A7000F2B301EBC10303EB0116431EB3FBF6F324
:100A80005B1C43F480431B0549D092B301EBC102C8
:100A900002EB0111401EB0FBF1F0401CC0F30B0053
:100AA00040F4804040F400402168CA694CF6FF736E
:100AB0009A431043C861D4E90710014320680268D3
:100AC00022F0C00211430160D4E903010143206810
:100AD000826848F2FF339A4311438160D4E90501EB
:100AE00008432168CA6822F0FF021043C86001E091
:100AF0000EE016E02068016841F001010160256404
:100B0000202084F83D00256384F83E50002070BD0D
:100B100001EB4106431EB3FBF6F35B1CB3E7012078
:100B2000C2E701EB4101401EB0FBF1F0401CC0F3F5
:100B30000B00B7E7A086010080841E0000093D007D
:100B400040420F002DE9FF4F83B00025DDE9107909
:100B50009A4693460446DDF848800095FFF728FF43
:100B6000064694F83D0020287CD1192301228549AE
:100B70002046009601F0F0F80028F5D194F83C00EA
:100B800001286FD0012084F83C0020680168C90763
:100B900003D1016841F0010101602068016821F47E
:100BA00000610160222084F83D00402084F83E006E
:100BB00025646762A4F82A90608D20857248E062FF
:100BC000CDE9008653465A462046049900F0CCFFF2
:100BD00000287DD1208DDFF8B491202768B101284D
:100BE00014D00228206801681ED041F480610160A1
:100BF0002068416980690090B6E020684169816998
:100C00000091016841F400710160ADE02068016865
:100C100021F48061016072B62068416981690091A8
:100C2000016841F400710AE041F40061016072B6AC
:100C30002068416981690091016821F48061016047
:100C400062B691E0032868D801280CD002284346F8
:100C50004FF000024946204600960FD001F07CF884
:100C6000B0BB10E08BE032464146204601F0F3F87D
:100C700070BB20680069616A08706CE001F06CF874
:100C800030BB72B634E02068016821F480610160F5
:100C900072B620680069616A0870606A401C606210
:100CA000208D401E2085608D401E6085384846F2AC
:100CB000A8110068B0FBF1F0C0EBC00000EB8000B1
:100CC0000090401E009008D020684069C04300E0BA
:100CD00029E040070CD50098F3E744F8305F6773CC
:100CE000A573206940F02000206162B625731AE0E8
:100CF0002068016841F40071016020680069616A40
:100D00000870606A401C6062218D491E2185618DDA
:100D1000491E618562B621681BE032464146204685
:100D200001F099F818B1012007B0BDE8F08F2068F4
:100D30000069616A0870606A401C6062218D491E0A
:100D40002185618D491E618521684A69D243520718
:100D50000AD409690170606A401C6062208D401EDF
:100D60002085608D401E6085208D00287FF46AAF4D
:100D700084F83D7084F83E5084F83C50D4E702205B
:100D8000D2E70000020010000000FFFF0400010095
:100D9000180000202DE9FF4F83B09A46DDE9119736
:100DA00093460446DDF84080FFF702FE054694F8BE
:100DB0003D0020287FD1192301224049204600957B
:100DC00000F0CAFF002876D194F83C00012872D0C8
:100DD000012084F83C0020680168C90703D101683C
:100DE00041F0010101602068016821F400610160A7
:100DF000212084F83D00402084F83E00002626642F
:100E0000C4F82480A4F82A90608D20852C48E062E4
:100E1000CDE9007553465A462046049900F022FF5A
:100E200070B930E02A463946204601F047F858B1FB
:100E3000206C042804D12068016841F4007101602D
:100E4000012007B0BDE8F08F606A21680078086172
:100E5000606A401C6062218D491E89B22185628DC5
:100E6000521E628522685369DB435B070BD469B16C
:100E700000781061606A401C6062208D401E2085F1
:100E8000608D401E6085208D0028CBD12A463946D2
:100E9000204600F03BFF0028CAD154F83D0B016802
:100EA00041F400710160202004F81E09E67766779E
:100EB0000020C6E7FFE70220C3E7000002001000A1
:100EC0000000FFFF10B586B0002100910191029152
:100ED000039100681349884222D1134CA06940F065
:100EE0000800A061A069694600F0080004904FF472
:100EF0004070009012200190032003900B48FFF7F0
:100F000061FC0B48416841F0E06141F00201416041
:100F1000E06940F40010E061E06900F40010049022
:100F200006B010BD0054004000100240000C01400B
:100F300000000140024881680278114481607047D6
:100F40000C000020074810B5016841F01001016055
:100F5000032000F075F80F2000F006F800F024F8E8
:100F6000002010BD0020024070B50D4D04464FF426
:100F70007A712878B1FBF0F00A490968B1FBF0F00A
:100F800000F0ECFA48B9102C07D200222146501E7E
:100F900000F036F800206C6070BD012070BD0000CC
:100FA0000C000020180000200C4808B5816941F0B1
:100FB00001018161816901F001010091C16941F084
:100FC0008051C161C06900F08050009004484168C0
:100FD00021F0E06141F00071416008BD0010024065
:100FE00000000140002809DB00F01F0201219140B0
:100FF0004009800000F1E020C0F8001170470000B7
:10100000F0B40E4B1B680C46C3F30223C3F1070573
:10101000042D00D90425191D072901D2002300E061
:10102000DB1E012606FA05F1491E214099409E402B
:10103000761E16403143F0BC01F06DBB0CED00E0B4
:10104000064900F0070208684FF6FF03184040EA1F
:101050000220034A10430860704700000CED00E0D6
:101060000000FA052DE9F0470F46050061D0434E18
:10107000306800F00700B84209D2306820F007005D
:1010800038433060306800F00700B84251D128681A
:101090003B4C810712D5400703D5606840F4E060FF
:1010A00060602878000703D5606840F46050606095
:1010B0006068A96820F0F000084360602878C007E5
:1010C00028D06868012810D02168022810D089072C
:1010D00000292EDA616821F0030101436160FFF706
:1010E00067FC804641F288390DE021688903EFE70B
:1010F0008901EDE7FFF75CFCA0EB0801494502D947
:101100000320BDE8F0876068696800F00C00B0EB70
:10111000810FEFD1306800F00700B8420BD930687A
:1011200020F0070038433060306800F00700B84214
:1011300001D00120E5E72878400705D56068E96817
:1011400020F4E060084360602878000706D56068F6
:10115000296920F4605040EAC100606000F038F86E
:101160006168084AC1F30311515CC8400649086030
:1011700006480068FFF7F8FE0020C2E700200240A2
:1011800000100240C82B00081800002010000020AA
:101190000448054900684968044AC1F30221515CCA
:1011A000C84070471800002000100240D82B0008EB
:1011B0000448054900684968044AC1F3C221515CEA
:1011C000C84070471800002000100240D82B0008CB
:1011D00012A185B00FC98DE80F0014A0144A006851
:1011E00004905168134801F00C03042B10D0082B15
:1011F0000ED1C1F38343C9031DF803000AD551681A
:1012000004AAC1F34041515C0A4A5043B0FBF1F0DB
:1012100005B0704708494843FAE700000203040597
:10122000060708090A0B0C0D0E0F10100102000032
:101230000010024000127A0000093D002DE9F84F2D
:10124000040070D02078C04DC00749D06868C0F352
:101250008100012807D06868C0F38100022809D105
:101260006868C00306D52868800339D560680028FF
:10127000E7D035E06068B0F5803F0BD010B1B0F535
:10128000A02F11D0286820F480302860286820F42E
:10129000802002E0286840F480302860606890B1C7
:1012A000FFF786FB06460AE0286840F480202860A5
:1012B000F0E700BFFFF77CFB801B642873D8286829
:1012C0008003F7D50CE0FFF773FB064605E000BF8F
:1012D000FFF76EFB801B6428F0D828688003F7D4E2
:1012E00020789A4E80074FF001094FF0000839D559
:1012F000686810F00C0F07D06868C0F381000228FE
:1013000009D16868C00306D42868800714D520690D
:10131000012808D110E02069B0B1C6F80090FFF7AD
:1013200047FB074605E00AE1FFF742FBC01B022826
:10133000C4D828688007F7D52868616920F0F800CC
:1013400040EAC10028600DE0C6F80080FFF730FBDE
:10135000074604E0FFF72CFBC01B022823D82868AF
:101360008007F7D4207800072CD57948A169D9B136
:10137000C0F80090FFF71CFB074604E0FFF718FBDE
:10138000C01B02280FD8686A8007F7D571484FF450
:10139000FA510068B0FBF1F0009000BF0098411EC8
:1013A0000091FAD20EE080E0C0F80080FFF700FB69
:1013B000074604E0FFF7FCFAC01B022875D8686AEC
:1013C0008007F7D42078400760D5E8690027C0007F
:1013D00008D4E86940F08050E861E869012700F02E
:1013E000805000905C480168C90513D401688346A9
:1013F00041F480710160FFF7DBFA824606E000BF2E
:10140000FFF7D6FAA0EB0A0064284ED8DBF80000FC
:10141000C005F5D5E06801280AD008B1052813D029
:10142000286A20F001002862286A20F0040002E007
:10143000286A40F001002862E06841F2883B98B1D8
:10144000FFF7B6FA82460BE0286A40F004002862F3
:10145000EEE700BFFFF7ACFAA0EB0A0159455AD8F6
:10146000286A8007F6D50CE0FFF7A2FA824605E06D
:10147000FFF79EFAA0EB0A0159454CD8286A80076D
:10148000F6D41FB1E86920F08050E861E06988B3C4
:101490006968C1F38101022944D00228C6F860803E
:1014A00004D0FFF785FA044638E034E0FFF780FA0D
:1014B000074604E0FFF77CFAC01B02282BD82868F7
:1014C0008001F7D4206AB0F5803F05D16868A16833
:1014D00020F4003008436860D4E9080108436968D3
:1014E00021F4741108436860C6F86090FFF760FA51
:1014F000044606E025E000BFFFF75AFA001B022869
:1015000009D828688001F7D51BE000BFFFF750FA23
:10151000001B022802D90320BDE8F88F286880014B
:10152000F4D40EE00128F7D06868226A00F4803114
:10153000914204D1616A00F47010884201D0012008
:10154000EAE70020E8E70000001002400000424205
:1015500080044242180000200070004010B5401E78
:10156000B0F1807F01D3012010BD4FF0E024606115
:101570000F21601701F0CFF80020A0610720206143
:10158000002010BD70B590F83C20012A26D001241F
:1015900080F83C40022280F83D2003685A689D682C
:1015A00022F070060A6832435A600D4B02689A4274
:1015B00008D0B2F1804F05D00A4B9A4202D00A4BB4
:1015C0009A4204D1496825F080031943916080F85C
:1015D0003D40002180F83C10084670BD022070BDDF
:1015E000002C0140000400400008004000B585B018
:1015F000002100910191029103910068B0F1804FA8
:1016000011D10A48816941F004018161806969460C
:1016100000F0040004900C20009002200190039040
:101620000348FFF7CFF805B000BD000000100240EE
:101630000008014070B5044690F83C000D460128B2
:101640000AD0012084F83C0042B1042A18D0082AAC
:101650002AD00C2A4DD139E0022070BD206800F05C
:1016600089FE2068816941F00801816120688169F3
:1016700021F004018161206881692A69114311E028
:10168000206800F09FFE2068816941F4006181615B
:101690002068816921F480618161206881692A69FB
:1016A00041EA0221816124E0206800F0B7FE206851
:1016B000C16941F00801C1612068C16921F00401DC
:1016C000C1612068C1692A69114311E0206800F0F6
:1016D000D1FE2068C16941F40061C1612068C1691F
:1016E00021F48061C1612068C1692A6941EA02214F
:1016F000C161002084F83C0070BD10B5040003D027
:1017000094F83D0010B107E0012010BD002084F8DE
:101710003C00204600F01EF8022084F83D00211D08
:10172000206800F0E3FD012084F8460084F83E00C4
:1017300084F83F0084F8400084F8410084F84200B7
:1017400084F8430084F8440084F8450084F83D00A0
:10175000002010BD08B50068B0F1804F08D10548E1
:10176000C16941F00101C161C06900F00100009050
:1017700008BD00000010024010B50446022249B125
:1017800004290ED0082913D094F84100012816D05E
:10179000012010BD94F83E000128F9D184F83E20C4
:1017A0000FE094F83F000128F2D184F83F2008E0D0
:1017B00094F840000128EBD184F8402001E084F83F
:1017C00041200122206800F0C7FD0F4920688842AF
:1017D00003D1426C42F4004242642068884208D03F
:1017E000B0F1804F05D00949884202D008498842AB
:1017F00004D1816801F00701062903D0016841F096
:1018000001010160002010BD002C014000040040D7
:101810000008004070477047F8B502680446106839
:10182000D168536910F00F0F4FF0000553D003F04B
:10183000010601F4907737435FD0C20705D0CA058F
:1018400003D5226C42F001022264420705D5DA0773
:1018500003D0226C42F002022264820705D5DA0727
:1018600003D0226C42F004022264020707D501F083
:101870002002324303D0226C42F008022264226C20
:10188000002A34D0800604D5880602D5204600F010
:1018900033FE20684069216CC0F38010090700D432
:1018A00030B3204600F010FE2068416949061BD580
:1018B000416921F040014161A06BA8B158494163E1
:1018C000A06BFEF721FF002811D0A06B416B01B087
:1018D000BDE8F040084783060FD58B060DD520469E
:1018E000BDE8F84000F008BE2046FFF794FFF8BDC1
:1018F0002046FFF790FF2564F8BD266B2023012EBC
:1019000052D1C60650D5CE064ED51068506800900C
:10191000506940062AD5A16B086840680004000C95
:10192000EAD0A68D8642E7D9E0858869202818D0BC
:10193000D06820F48070D0602068416921F00101F6
:1019400041612068416921F04001416184F83E30E5
:1019500025632068C16821F01001C160A06BFEF70B
:10196000B0FEA08DE18D401A81B219E0A08DE18D0D
:10197000401A81B2E08D0028BED00029BCD0D068CA
:1019800020F49070D0602068426922F00102426128
:1019900084F83E3025632068C26822F01002C260DD
:1019A0002046FFF737FFF8BD05062BD50D0629D5D4
:1019B00094F83D002128F6D1A068B0F5805F01D1F0
:1019C0002069B0B1206A411C21622168007848601A
:1019D000E08C401E0004000CE084E4D12068C16863
:1019E00021F08001C1602068C16841F04001C16000
:1019F000F8BD206A0088C0F308005060206A801C8F
:101A00002062E5E74006F3D54806F1D5D1682046C7
:101A100021F04001D16084F83D3000F08BF8F8BD32
:101A2000B924000870B5040004D094F83D000025E6
:101A300010B106E0012070BD84F83C50204600F053
:101A400023F8242084F83D002068C16821F4005167
:101A5000C160204600F0ACFD2068016921F490418E
:101A600001612068416921F02A0141612068C16853
:101A700041F40051C1602564202084F83D0084F8C1
:101A80003E00002070BD000030B585B000240094F9
:101A90000194029403940068184988422CD1184894
:101AA000C16941F48021C161C16901F480210491BF
:101AB000816941F0080181618069124D00F00800E0
:101AC00004904FF480600090022001900320039066
:101AD00069462846FEF776FEE814CDE9000469461B
:101AE00028460294FEF76EFE002211462720FFF7DB
:101AF00087FA2720FFF776FA05B030BD004800408E
:101B000000100240000C014090F83E30202B0ED116
:101B100059B152B190F83C30012B08D0012380F824
:101B20003C300023036300F09FBD0120704702207A
:101B3000704770477047FEE701684A69D243520513
:101B40000FD46FF480624A61002140F8301F2022D8
:101B500042738173026942F0040202610173012041
:101B600070470020704700002DE9F84F04460068D8
:101B700089460B9D01689846174641F480610160D3
:101B80002068016841F48071016000954FF0011BED
:101B90000022594620460A9B00F0DEF84FF4007AF6
:101BA00040B120680068C00501D5C4F840A00320FA
:101BB000BDE8F88F216809F0FE0008612B4628492E
:101BC00020460A9A00F0FCF8F0BB20684169806961
:101BD00000902A4620460A9900F070F940B1206C26
:101BE00004283AD12068016841F40071016034E0B2
:101BF000FEB2B8F1010F09D02168380A08612A46FF
:101C000020460A9900F05AF90028E8D120680661B8
:101C10002A4620460A9900F051F90028DFD12068B1
:101C2000016841F480710160009500225946204608
:101C30000A9B00F091F80028B3D1216809F0FF0059
:101C400040F00100086100E007E02B46044920460F
:101C50000A9A00F0B5F80028AAD00120A8E70000F1
:101C6000020001002DE9F843044600680D46DDE955
:101C7000089701689846164641F4807101604B460A
:101C800000224FF001112046009700F065F848B19E
:101C900020680068C00502D54FF40070206403205E
:101CA000BDE8F883216805F0FE0008613B464A461E
:101CB0001549204600F084F888B920684169806998
:101CC00000903A464946204600F0F8F848B1206CAA
:101CD000042804D12068016841F4007101600120EA
:101CE000DEE7F5B2B8F1010F09D02168300A0861CA
:101CF0003A464946204600F0E1F80028E7D120683E
:101D000005610020CCE700000200010070B5164616
:101D10000D4604460DE02046FFF70EFF08B10120F6
:101D200070BD681C05D0FEF743FE801BA84207D893
:101D300035B120684069C0434007ECD4002070BD35
:101D4000002044F8300F20216173A073216941F015
:101D5000200121612073E2E72DE9F0471E469046FD
:101D60000D460446C1F30747DDF8209008E0701CDB
:101D700006D0FEF71DFEA0EB0900B0420FD876B1E9
:101D80002068012F18D0806925EA00000004000CAB
:101D900014D000214145EAD00020BDE8F0870020A2
:101DA00044F8300F20216173A073216941F02001B4
:101DB000216120730120F0E74069E5E70121E9E7AF
:101DC0002DE9F0479A4691460E46044600254FF00D
:101DD0002008C1F3074725E020684069C04340055B
:101DE00014D42068016841F40071016021686FF427
:101DF00080604861256384F83D8084F83E50206C03
:101E000040F00400206484F83C501FE0B9F1FF3F2B
:101E100008D0FEF7CDFDA0EB0A0149450CD8B9F179
:101E2000000F09D02068012F13D0806926EA000036
:101E30000004000C0BD0CFE744F8305F84F80D802D
:101E4000A573206940F02000206125730120BDE8C2
:101E5000F0874069EAE72DE9F041002590460E46FB
:101E60000446202717E04069C043C0060CD454F84C
:101E7000301B6FF01000486144F810596777A57760
:101E8000206A2062257717E0FEF792FDA0EB08009C
:101E9000B04208D83EB120684169C9434906E2D43E
:101EA0000020BDE8F08144F8305F6773A5732069B6
:101EB00040F02000206125730120F2E770B516463E
:101EC0000D4604460DE02046FFF736FE08B101201E
:101ED00070BD681C05D0FEF76BFD801BA84207D8BB
:101EE00035B120684069C0430006ECD4002070BDC5
:101EF000002044F8300F20216173A073216941F064
:101F0000200121612073E2E77CB514460D460646A8
:101F10006A4606213B2000F07DF800280BD1BDF871
:101F2000001049BA3180BDF8021049BA2980BDF8C5
:101F3000041049BA21807CBD7CB514460D46064686
:101F40006A460621432000F065F800280BD1BDF851
:101F5000001049BA3180BDF8021049BA2980BDF895
:101F6000041049BA21807CBD10B51C48FEF726FD3F
:101F700080216B2000F09CF800216B2000F098F885
:101F8000032000F060F8002000F058F8322000F044
:101F900077F80021382000F08BF800216A2000F04B
:101FA00087F80021232000F083F88021372000F0FB
:101FB0007FF8752000F014F8682801D0012010BDCA
:101FC00001216B2000F074F800216C2000F070F803
:101FD000322000F055F8002010BD00001C00002049
:101FE0001FB500218DF80C1040F6FF73012203A9E4
:101FF0008DE80E0013460246D1210548FEF7A2FDEA
:102000006420FEF7CDFB9DF80C0004B010BD00006D
:102010001C0000200EB540F6FF730092CDE90113BD
:1020200002460123D1210448FEF78CFD6420FEF70F
:10203000B7FB00200EBD00001C000020C006010EF2
:102040001C2000F035B8C006010E1B2000F030B88F
:10205000BC2801D3012110E0622801D302210CE049
:102060002A2801D3032108E0142801D3042104E025
:102070000A2801D3052100E006211A2000F018B833
:1020800010B504464FF47A70844201D9044602E048
:10209000042C00D20424B0FBF4F0401EC1B219207D
:1020A00000F006F86008BDE81040FFF7D1BF00005F
:1020B0001FB540F6FF738DF80C10012203A98DE8BF
:1020C0000E0013460246D0210448FEF763FE64204A
:1020D000FEF766FB04B0002010BD00001C000020CD
:1020E000F0B585B000241C48009401940294039438
:1020F000816941F020018161816901F02001049131
:10210000816941F004018161816901F00401049158
:10211000816941F0080181618069104F00F0080079
:102120004FF470460490002231463846FEF73AFCE0
:102130000325CDE90054694609480294FEF742FBA5
:1021400001AA0120009682E8310069463846FEF770
:1021500039FB05B0F0BD000000100240000C01404A
:10216000000801400D4810B50B4901600C49416061
:1021700000214FF480428160C0E903124161816116
:10218000C1610162FEF71AFC002803D0BDE81040CF
:10219000FEF795BA10BD0000005400401C0000205E
:1021A000A086010010B58AB0002407941C2168465F
:1021B0000894FEF751F81B484FF080410160472119
:1021C000C0E9011440F2E731C0E903148461FFF76C
:1021D00094FA08B1FEF773FA079407A91148089416
:1021E000FFF7D0F908B1FEF76AFA602000904FF4CB
:1021F000FA70CDE90104082269460A480494FFF701
:1022000019FA08B1FEF75BFA0C22694605480194F9
:10221000FFF710FA08B1FEF752FA0248FFF7E6F9A5
:102220000AB010BD700000200C4810B50A490160CA
:102230004FF416514160002181600C22C160C0E959
:1022400004128161C161FFF7EDFB002803D0BDE8F6
:102250001040FEF734BA10BD00480040B80000201E
:10226000FEE7FEE770477047064A126831B1012960
:1022700007D110640C210348FFF77EBAD063082110
:10228000F9E7704770000020FEF754BE30B58FB0FC
:1022900028216846FDF7E0FF14210AA8FDF7DCFFBE
:1022A00001210804CDE900100024029402250491C4
:1022B000CDE907504FF4E01009906846FEF7BEFFE5
:1022C00008B172B6FEE70F20CDE90A054FF4806031
:1022D000CDE90C4002210AA80E94FEF7C3FE0028A7
:1022E00001D072B6FEE70FB030BD7047F0B502689E
:1022F000164B174C174D4FF08047984205D0B84207
:1023000003D0A04201D0A84203D122F070064A684F
:102310003243984205D0B84203D0A04201D0A8422F
:1023200003D122F44074CA6822434C6922F080022F
:10233000224302608A68C2620A688262984201D1BE
:102340000969016301214161F0BD0000002C0140D9
:10235000000400400008004010B501F01F030121F7
:10236000046A99408C430462016A9A4011430162F5
:1023700010BD000030B5026A22F001020262026A5A
:102380004368846924F073050C682C4322F002052D
:102390008A682A430A4DA8420BD122F00805CA6870
:1023A00023F440732A434D6922F004021D438B69D4
:1023B0002B434360846149684163026230BD000081
:1023C000002C014030B5026A22F010020262026A5B
:1023D000436884690D6824F4E64444EA05248D6862
:1023E00022F0200242EA05120B4DA8420ED1CD6820
:1023F00022F0800242EA05124D6923F4406343EA69
:1024000085038D6922F0400243EA850343608461BD
:1024100049688163026230BD002C014030B5026A18
:1024200022F480720262036A4268C46923F4007372
:1024300024F073050C682C438D6843EA05230C4D8A
:10244000A8420ED1CD6823F4006343EA05234D6909
:1024500022F4405242EA05128D6923F4806342EA75
:1024600005124260C4614968C163036230BD000067
:10247000002C014030B5026A22F480520262046AE4
:102480004268C3690D6823F4E64343EA05238D6877
:1024900024F4005444EA0534064DA84204D14D69A1
:1024A00022F4804242EA85124260C36149680164B5
:1024B000046230BD002C014010B5406A0021C18586
:1024C000C184FFF7A8F910BD0168CA6822F49072B0
:1024D000CA6001684A6922F001024A61016B012960
:1024E00004D10168CA6822F01002CA60202180F875
:1024F0003E1000210163704708B590F83E10222974
:1025000001D0022008BD82684FF480539A4201D165
:10251000016921B1816A9A421BD04AB10AE002687E
:10252000816A5268C2F308020A80816A891C08E045
:10253000026972B10268526802F07F020A70816A11
:10254000491C8162C18D491E0904090CC18503D053
:1025500019E002685268F1E70168CA6822F02002B7
:10256000CA600168CA6822F48072CA6001684A6958
:1025700022F001024A61202180F83E10016B0129FE
:1025800003D0FFF7D6FA002008BD002101630168DF
:10259000CA6822F01002CA6001680A68D20602D531
:1025A0000A6849680091818DFFF734F9EBE7000074
:1025B00070B5044600680169E26821F44051114396
:1025C00001612169A0680843616908432168CA68FC
:1025D00041F20C639A430243CA6020684169A269D0
:1025E00021F44071114341611E492068884202D1A3
:1025F000FEF7DEFD01E0FEF7CBFD00EBC00101EBD5
:102600000012606864218000B2FBF0F3B3FBF1F3C9
:102610006FF018067343B2FBF0F5B2FBF0F605EB72
:102620008305322303EB0515B5FBF1F5B6FBF1F697
:1026300005F0F00505EB0615B2FBF0F6B2FBF0F085
:10264000B0FBF1F06FF01802504306EB800003EB93
:102650000010B0FBF1F0216800F00F002844886002
:1026600070BD00000038014081628285C285002172
:102670000164222280F83E2080F83C100168CA687C
:1026800042F48072CA6001684A6942F001024A61FC
:102690000068C16841F02001C1600020704700005F
:1026A00070B51948FFF7B8F8184C194920786378C5
:1026B0000B54401CC2B222700A2B1AD10878002594
:1026C000A0F16103062B13D9782802D0792808D00D
:1026D0000EE0481C114401F8015CFDF7B0FD60609C
:1026E00006E0481C114401F8015CFDF7A8FDA0605C
:1026F00025700120A070BDE8704004490246491CC5
:102700000148FFF701BA0000B800002000000020D7
:10271000FC000020FEE70907090E002804DB00F199
:10272000E02080F80014704700F00F0000F1E02076
:1027300080F8141D704700000220FDF751FD064689
:102740000220FDF74DFD05460220FDF749FD044638
:102750000220FDF745FD83460220FDF741FD82463C
:102760000220FDF73DFD8146FEF7ECFBFFF78EFDF5
:10277000FFF7B6FCFFF7F6FCFFF714FDFFF754FD7B
:1027800001214FF4FA70FFF76FFDFFF7EDFB012217
:102790001D491E48FFF7B8F91D4F6FF00E0822467D
:1027A00029463046FFF7C8FBB6F9000000F07FF875
:1027B00000223B4600F092F8424600F0BFF900F0DC
:1027C00047F83080B5F9000000F071F800223B4670
:1027D00000F084F8424600F0B1F900F039F82880A2
:1027E000B4F9000000F063F800223B4600F076F8F0
:1027F000424600F0A3F900F02BF820804A465146EB
:102800005846FFF781FBCAE701000020B80000200E
:1028100000409F4010B500290AD00878002807D052
:1028200005487844FDF702FF002801D0002010BDC4
:102830000248784410BD0000DE030000D60300000B
:1028400002494FF0000000F047B900BF0000F87FD8
:102850004FEA41034FEA5353A3F58063D3F11E03BC
:10286000C8BFD3F1210C0CDD4FF0004242EAC12277
:1028700042EA505232FA03FC8CEAE17CACEBE170A4
:102880007047102BC4BF0020704703F5787CBCF163
:10289000FF3F04D06FF0004282EA2100704770B51C
:1028A00000F0C6F84992248000207047F2E710F04B
:1028B000004248BF4042B0FA80F310FA03F10AD058
:1028C000C3F11D0303F580634FEA415002EB03524D
:1028D00002EBD12170474FF000007047DFF848C18C
:1028E00070B51CEA111E1EBF1CEA13159EEA0C0FE0
:1028F00095EA0C0F00F06F8081EA030423EA4C1381
:102900004EEAD47E21EA4C1141F4801143F4801345
:10291000AE44A1FB024CA0FB0365AEF17F7E3619ED
:1029200055EB0C05A1FB034C4CF10003A0FB021C72
:1029300016EB0C06654153F10003094218BF46F03F
:10294000010613F4007F0BD14FEA03314FEA053043
:10295000340341EA155140EA16506FF003020AE0D1
:102960004FEAC3214FEAC520F40241EA555140EA3B
:1029700056506FF0020202EB2E4201EB025585EA3F
:10298000CE710AD05FEA440C18BF24F0004450F125
:10299000000041F1000120EAD47040F2FE7C624563
:1029A00000D270BDA84214BF4FF080444FF04044A5
:1029B000002E08BF0024BEF1806FA8BFA1F1C04166
:1029C000BDE8704080F282804FF0000001F1C0410C
:1029D00001F0004170479EEA0C0F0CEA131518BF76
:1029E00095EA0C0F06D04FF0000081EA030E0EF0BE
:1029F000004170BD00F01CF88900013E00F007B8EE
:102A000000F009B84FEA430C5FEA5C5C08D081EA49
:102A1000030100F05BB84FEA410C5FEA5C5CF6D161
:102A20004FF00000014970470000FF070000F87FE9
:102A30000EF1020E2EF0030E5EF8046B364205D442
:102A4000012A43EB030515F5001F12D8012841EBBD
:102A5000010C1CF5001F0CD80ED14FEAD17C15F5E6
:102A6000001F0CEB4C0C0CF1020C08BF4CEBD37CA0
:102A700004E04FF0080C01E04FEAD37C0CEB4C056E
:102A800026FA05F606F00706B6F1040C06D20EEBA0
:102A9000860CBDE870404CF0010C6047DFE80CF09C
:102AA000090B02024FF000414FF00000A1F5002198
:102AB00070BD19461046012851EB010418BFD4F52A
:102AC000001484BF002001F0004170BD0808A0F58B
:102AD00000114FEA310170470CF00F03092B08BFBA
:102AE000082000F059800A2B0BD0082B18BF704724
:102AF00008BF1CF0400F0AD04FF000004FF000015B
:102B000070471CF0400F18BF4FF0004070471CF09A
:102B1000100F08D020F0704300F07F4242EAD3014A
:102B20004FEA4370704700F0604021F07F4242EA74
:102B3000000201F07F4040EA727070474FF0FF0CD6
:102B40004CF4E06C1CEA11531CBF9CEA030C944546
:102B5000C2BFDA4201EB02517047002B0DD0BCF12D
:102B6000000F0FD0002A01F00041A4BF41F0E04166
:102B700041F07F614FF00000704701F000414FF0DD
:102B80000000704750EA01334FF09B0C18BF4CF027
:102B9000806C7FF455AE70471CF4801F11D01CF47C
:102BA000E02F03D06FEACC31490070474FF040501E
:102BB000EFF3008222F0704242EA000282F30088C2
:102BC00070474FF000007047000000000000000058
:102BD00001020304060708090000000001020304C3
:102BE000102D0008000000201C0000002801000833
:102BF0002C2D00081C0000200C08000044010008D7
:102C00001001000043000000F8FFFFFF00404040BB
:102C100040404040404041414141414040404040AF
:102C2000404040404040404040404040400502025B
:102C3000020202020202020202020202022020201A
:102C40002020202020202002020202020202909076
:102C50009090909010101010101010101010101074
:102C600010101010101010100202020202028888C8
:102C700088888888080808080808080808080808D4
:102C800008080808080808080202020240000000BC
:102C90000000000000000000000000000000000034
:102CA0000000000000000000000000000000000024
:102CB0000000000000000000000000000000000014
:102CC0000000000000000000000000000000000004
:102CD00000000000000000000000000000000000F4
:102CE00000000000000000000000000000000000E4
:102CF00000000000000000000000000000000000D4
:102D000000000000000000000000000000000000C3
:102D100000000000000000000000000001000000B2
:0C2D200010000000000000000024F4007F
:04000005080000ED02
:00000001FF
